:020000040000fa
:080000000002040000000000f2
:020000040000fa
:100008009c0500004c050000540500005c0500003c
:10001800640500006c0500009c0500009c050000bc
:100028009c050000a6020000140400003203000032
:1000380012050000ec0200004a040000e003000082
:100048009c0500009c0500009c050000b804000009
:100058009c0500009c050000380500009c05000078
:100068009c0500009c0500009c0500009c05000004
:100078009c0500009c0500009c0500009c050000f4
:100088009c0500009c0500009c0500009c050000e4
:100098009c0500009c0500009c0500009c050000d4
:1000a8009c0500009c0500009c0500009c050000c4
:1000b8009c0500009c0500009c0500009c050000b4
:1000c8009c0500009c0500009c0500009c050000a4
:1000d8009c0500009c0500009c0500009c05000094
:1000e8009c0500009c0500009c0500009c05000084
:1000f8009c0500009c0500009c0500009c05000074
:100108009c0500009c0500009c0500009c05000063
:100118009c0500009c050000740400009c0500007c
:100128009c0500009c0500009c0500009c05000043
:100138009c0500009c0500009c0500009c05000033
:100148009c0500009c0500009c0500009c05000023
:100158009c0500009c0500009c0500009c05000013
:100168009c0500009c0500009c0500009c05000003
:100178009c0500009c0500009c0500009c050000f3
:100188009c0500009c0500009c0500009c050000e3
:100198009c0500009c0500009c0500009c050000d3
:1001a8009c0500009c0500009c0500009c050000c3
:1001b8009c0500009c0500009c0500009c050000b3
:1001c8009c0500009c0500009c0500009c050000a3
:1001d8009c0500009c0500009c0500009c05000093
:1001e8009c0500009c0500009c0500009c05000083
:0801f8009c0500009c050000bd
:020000040000fa
:100208009c050000740500007c05000084050000c2
:100218008c050000940500009c0500009c0500006a
:100228009c050000a6020000140400003203000030
:1002380012050000ec0200004a040000e003000080
:100248009c0500009c0500009c050000b804000007
:100258009c0500009c050000380500009c05000076
:100268009c0500009c0500009c0500009c05000002
:100278009c0500009c0500009c0500009c050000f2
:100288009c0500009c0500009c0500009c050000e2
:100298009c0500009c0500009c0500009c050000d2
:1002a8009c0500009c0500009c0500009c050000c2
:1002b8009c0500009c0500009c0500009c050000b2
:1002c8009c0500009c0500009c0500009c050000a2
:1002d8009c0500009c0500009c0500009c05000092
:1002e8009c0500009c0500009c0500009c05000082
:1002f8009c0500009c0500009c0500009c05000072
:100308009c0500009c0500009c0500009c05000061
:100318009c0500009c050000740400009c0500007a
:100328009c0500009c0500009c0500009c05000041
:100338009c0500009c0500009c0500009c05000031
:100348009c0500009c0500009c0500009c05000021
:100358009c0500009c0500009c0500009c05000011
:100368009c0500009c0500009c0500009c05000001
:100378009c0500009c0500009c0500009c050000f1
:100388009c0500009c0500009c0500009c050000e1
:100398009c0500009c0500009c0500009c050000d1
:1003a8009c0500009c0500009c0500009c050000c1
:1003b8009c0500009c0500009c0500009c050000b1
:1003c8009c0500009c0500009c0500009c050000a1
:1003d8009c0500009c0500009c0500009c05000091
:1003e8009c0500009c0500009c0500009c05000081
:0803f8009c0500009c050000bb
:020000040000fa
:100400004f1321000e5f24000e0188000000000041
:10041000000020000000e000020032000001200087
:10042000200288000c000700200b230001002000a0
:1004300011000700000020000000e0000200320070
:10044000000002000000000038310200000000003f
:100450000040da000000fe004440a90060022000d5
:100460000000e0000300320000002000a00188002e
:100470004440a80000000600910188008000780038
:100480000000eb0015003700e280400032a0b4000d
:100490009101ba00e280400032a0b4009102ba009b
:1004a000e280400032a0b4000002eb00472bde00e7
:1004b000f507b200602ce10004003a000059eb009f
:1004c0008301e900fdff3e00040037006128e100e0
:1004d000010032000082eb00040007001101ba00a5
:1004e0000200e000e8ff3a00000006003159ba00bf
:1004f0008301e9000c0032002159ba008301e900b0
:10050000080032000400e00003003a00e2804000ee
:1005100032a0b400f5ff370011d9ba008301e90019
:10052000faff3a008100e800e180400032a0b40008
:10053000000006002a2e040000000000502e0400d7
:1005400000000000fc2d040000000000849fbe009d
:100550003400f80004002000a40188000400fa0020
:10056000040a8000040f7800040a80001407980031
:100570008420a900d58080006408800004aab90006
:10058000040278009e0242001e0290000482520083
:1005900005002000f4808800058188000002eb003f
:1005a000d4808800050f800004802000048262004f
:1005b000e00f52000200320014002000010037005a
:1005c0000082eb00348188000080fa003400f900da
:1005d0004f02be0000400600849fbe003400f800b9
:1005e00004002000a40188000400fa00240a80000e
:1005f000040f7800240a80001407980084a0a90042
:10060000e58080006408800004aab9000402780034
:100610009e0242001e02900004825200050020004b
:1006200014818800258188000002eb00e4808800a6
:10063000850f80000480200004826200e00f5200d9
:100640000200320014002000010037000082eb009d
:10065000448188000080fa003400f9004f02be0097
:10066000004006003600f800809fbe00829fbe005a
:10067000849fbe00869fbe003400f800000020006a
:10068000a00188000000fa008460a900c5808000f5
:1006900024838000110009008482d80001027800c0
:1006a000e00f520003003a008440a8000002eb0073
:1006b000c4808800b5808000548380001100090048
:1006c0008482d80001027800e00f520003003a0053
:1006d0008bc0a8000002eb00b4808800a5808000d9
:1006e000441f2000110009008482d8000102780014
:1006f000e00f52000f003a00241680004422de0072
:10070000614262000404a200614262000482fb00b4
:10071000610262004422dd0026168000f5fe2f00f3
:100720008502630005027200241688000002eb00b7
:10073000a4808800948080008402e800e47e800029
:10074000110009008482d80001027800e00f5200f5
:1007500007003a002106070000427800e04f5200ef
:10076000060032000002eb0094808800030037008e
:10077000948080000402e80094808800c480800097
:100780000402e800c4808800a48080000402e8001d
:10079000a4808800b48080000402e800b48088004f
:1007a0000080fa003400f9004f03be004f02be0083
:1007b0004f01be004f00be003600f90000400600a9
:1007c000849fbe003400f80004002000a4018800cb
:1007d0000000fa0084e0a900f48080000581800018
:1007e000e00f5200e08f5a0003003200d4808000f6
:1007f0000402e800d48088001481800025818000f4
:10080000e00f5200e08f5a0003003200e4808000c5
:100810000402e800e48088000080fa003400f90057
:100820004f02be00004006003600f800809fbe0068
:10083000829fbe00849fbe00869fbe003400f800e9
:1008400000002000a00188000000fa008440a900f8
:10085000b306070000027800a4818800e6070700bd
:1008600000027800848188003308070000027800c5
:10087000948188000080fa003400f9004f03be0024
:100880004f02be004f01be004f00be003600f9000f
:10089000004006003600f800809fbe00829fbe0028
:1008a000849fbe00869fbe003400f8000000200038
:1008b000a00188000000fa0084c0a900630b0700b3
:1008c00000027800748188000080fa003400f9008a
:1008d0004f03be004f02be004f01be004f00be00de
:1008e0003600f900004006003600f800809fbe0088
:1008f000829fbe00849fbe00869fbe003400f80029
:1009000000002000a00188000000fa008bc0a900b0
:100910000c13070000027800b48188000080fa0000
:100920003400f9004f03be004f02be004f01be006d
:100930004f00be003600f900004006000000fa003b
:100940000411800066026200e60f520002003a00c5
:10095000341180000300370035118000f40f2000af
:1009600004826200040078000080fa0000000600a3
:100970003600f800809fbe00829fbe00849fbe00ac
:10098000869fbe003400f80000002000a00188000f
:100990000000fa008560a900141180006102620065
:1009a000e00f52000a003200e4ff07000002780066
:1009b00004427800044078008614070000027800a2
:1009c000e00f52000f00320084c0a8000d00370075
:1009d0001411800064026200e00f52000200320035
:1009e0000080eb00e2140700141180006202620034
:1009f000e00f5200030032002222a900e0ff2f0086
:100a0000db1407000080fa003400f9004f03be0039
:100a10004f02be004f01be004f00be003600f9007d
:100a2000004006003600f800809fbe00829fbe0096
:100a3000849fbe00869fbe003400f80000002000a6
:100a4000a00188000000fa008480a9000a080700bd
:100a50000080fa003400f9004f03be004f02be00d0
:100a60004f01be004f00be003600f90000400600f6
:100a7000801f78003400f80000002000a0018800ea
:100a80000000fa0085c0a9000080fa003400f900d7
:100a90004f00780000400600801f78000000fa0038
:100aa0008020a900ffff3700801f78000000fa00b7
:100ab0008060a900ffff3700801f78000000fa0067
:100ac0008040a900ffff3700801f78000000fa0077
:100ad0008080a900ffff3700801f78000000fa0027
:100ae00080a0a900ffff3700801f78000000fa00f7
:100af0008020a900ffff3700801f78000000fa0067
:100b00008060a900ffff3700801f78000000fa0016
:100b10008040a900ffff3700801f78000000fa0026
:100b20008080a900ffff3700801f78000000fa00d6
:100b300080a0a900ffff37000000fa00ffff370088
:100b4000881f78008a1f78004400f800080f2000f2
:100b5000280288000004900010059000a00090007a
:100b600030019000c00190000300ca000280ca005a
:100b70000030cb001a00cd004604c3000100ca00bb
:100b80004604c0001e04c0000605c0000100cd00e0
:100b900021009800050d7800eaba97000525780035
:100ba0004400f9004f0578004f047800000006006b
:100bb000801f78004000b0000008eb004f00780074
:100bc000801f7800100090000018eb000018eb0068
:100bd0000008eb004f007800000006004400f80019
:100be000020f200022028800910078003000ca0025
:100bf0003080ca000000cb002080ca000000cb007b
:100c00003100cd004000ca000000cb000000cb0046
:100c10000010cb003100cd001180cc004400f90061
:100c2000000006008b20a9008be0a900e70260000d
:100c3000c42add00f4f82f000606800006026200d8
:100c40000502720004068800800278000507b200e1
:100c5000c82add00f4ff28001606800006026200a4
:100c60000502720014068800e8026000c32ade0054
:100c7000e1826200c92add00f4df2f00d604800083
:100c80000602620005027200d40488000008b20067
:100c90004700de00610060004f00dd00f4ff270028
:100ca000d50480000502620000027200d4048800ae
:100cb00000000600200e8800310e8800430e8800d8
:100cc000540e8800020e88000000060061026100d8
:100cd000e2ff2f00550e8000050161000401710044
:100ce000520e88000000e90000004000641d200052
:100cf0000132780000000600600e88000000060047
:100d000003f0a200889fbe008a9fbe008c1f78005f
:100d100062010700690133006450e1004f003200b6
:100d20006420e1005200320003826c0007003b00a7
:100d30000905d0000306d000820f54000c065d00a8
:100d400002003900020032008901780003067800b1
:100d50008582550004003d000003fd008103fd0075
:100d60008502ea008b854200840f720002003b007e
:100d700060001000e08018006011b8000005eb0072
:100d80007a28e1000a00390006007800c75ddd001e
:100d9000f707b200878075002d003700828171004f
:100da0000a017800610560008180d1000080d300d5
:100db0008502e900f9ff3b000604400087844800f3
:100dc00002003b0060041400e0841c000988a300ba
:100dd000070032008a817100828171006101640024
:100de0008904d1000884d3008b05e8001700370080
:100df0000978a30013003a000b00e0001300340050
:100e00008b05e9000804440089844c000a447400fe
:100e10000978a3000d003a000b00e0000700340041
:100e20008b05e9000804440089844c0001003a0065
:100e30000b0020000978a300f7ff32000001eb004f
:100e400002003700828171000a017800d800070093
:100e50000cf0a70001f0a000210137006420e100a0
:100e600002003a00838f6c00210133000801be00ac
:100e70000200be001a0137000081eb005301370069
:100e8000889fbe008a9fbe008c1f78000301070068
:100e90000a01330003866c006450e1002e0032002a
:100ea0006420e100330032006150e1002f00320085
:100eb0006120e1003100320085855500eb07b0006c
:100ec0000900200008042000050037000804440041
:100ed00089844c000a0031000603430087834b00dd
:100ee0000001530081815b00f8ff33000203be0064
:100ef0000800a0000804440089844c00f6ff390073
:100f0000c639dd00830173000100320013002000a8
:100f10008904d1000884d3000998a3000500320099
:100f20000800a7000300a0008904d1000884d300b2
:100f30008b05e8008904d1000884d3000001eb0090
:100f40000281d2009a00070001f0a1000cf0a70076
:100f500001f0a000e20037006420e100e40032006c
:100f60000801be000200be00f7ff37006120e1006b
:100f7000df0032006000b800f3ff370000002000ff
:100f800001f82700f0ff3700839f68000100e000b0
:100f900002003d0060001000e08018000300e00047
:100fa00002003d0060011100e0811900720107009c
:100fb0004f00e00002003b0060001000e0801800dd
:100fc00000000600140020007b013700f4ff2f0012
:100fd000790137000001be009b0007000470a700e4
:100fe00003f0a1006509b100160032000d003500c4
:100ff0006828e10006003500f0ff2f00f1ff270010
:101000000300e00013003b00010028000000050081
:1010100000004000818048008502e900fcff3a00a2
:1010200008003700f88f420002003c008000eb000f
:10103000000005008100d1000080d3008502e80097
:10104000fcff3a000300e00002003b0060001000db
:10105000e0801800000006004f89de008201780061
:10106000700137006011b8007e01370004002000d5
:1010700000003700889fbe008a9fbe008c1f78004a
:101080004f26dd00850007008c0033006120e10061
:10109000430032006250e10041003e003e00390052
:1010a0006420e1003c003200058255000f003b0047
:1010b0000402e80038003a00800f5300818f5b0083
:1010c000350034000800be0003f0a10001f0a600c6
:1010d00003f0a0000cf0a7000aff07008000370013
:1010e0000603430087834b000c464600000553006f
:1010f00081855b00020033000a03be000c00a000e3
:101100000402e900f6ff3b00850578000602430073
:1011100087824b0004003a006000b80009f0a70085
:1011200001f0a0006e0037000002520081825a00d8
:101130000704e000040033000603430087834b00ec
:101140008b05e900faff3700090578000604be00a8
:101150000203be006011b80015000700e00f520046
:10116000e08f5a000700350002003c000c08a30085
:10117000040032000601be0003f0a0000cf0a7003e
:10118000e0fe07000a85680001f0a1000af0a70050
:1011900001f0a000520037000800be0050003700e8
:1011a000100220000cf0a6006040880050003700bc
:1011b00081002000618055000b003d000b002000e5
:1011c00061fe2f000100e1001d00340082817100ea
:1011d000610164008904d1000884d3000000e800a4
:1011e000faff3a0071002000610064000300700003
:1011f000020060000900320061044400e0844c00f9
:101200000988a500050032008b05e8006808e100a8
:1012100002003a008904d1000884d300f20f2000b4
:101220000258e10005003d00c75ddd00f907b2008e
:101230008980750008007800000006000bf8270080
:101240008b00780000000500c70ade00f107b2003d
:10125000f50fb20008003200e1cf42000200320078
:101260000170a00024000500810f70000100320011
:101270000408050044000500810f700002003a00d8
:10128000140005008502e9000000400081c048000c
:10129000fcff3b000170a000240005000004be001c
:1012a000e9ff07000003be000405be000200be0007
:1012b000e5ff0700844f7500000006000200be0035
:1012c0006450e100050036006420e10002003600b1
:1012d0000968a30001003a000800be000160a000f8
:1012e0004f0678004f05be004f04be000000060008
:1012f000f0ff2f00f1ff2700f9ff3700889fbe00a5
:101300008a9fbe008c1f7800e4ff0700ebff3300cc
:1013100003866c006450e100240032006420e10088
:10132000270032006150e100220032006120e1001c
:10133000210032008b854200eb07b1000134b80078
:10134000003ab8000804420089844a00013ab80013
:101350000030b8008880400009014a0004003300d2
:101360000000400081804800020149008b05e9002f
:10137000c909dd0083017000010032001300200064
:10138000c814de004814dd004709de001200b20078
:10139000c808de000884700085ff070001f0a10086
:1013a0000cf0a70001f0a000cdff37006120e100a4
:1013b000cfff32000801be000200be00f7ff370079
:1013c0006150e100fcff3a00c9ff3700889fbe0072
:1013d0008a9fbe008c9fbe00820578000004be007c
:1013e00099ff07000800be006420e10007003900f3
:1013f00002003a00f1ff2700f0ff2f000160a0007b
:101400001202200062408800550037006120e10090
:1014100003003a000b00a70001f82300500037003a
:1014200001f0a1000200210093642400e5fe070002
:101430000800be0004003500b2fd2000930c24001b
:101440000aff07000004be000005eb000b00a60029
:101450004f0dde0001f0a1000004be0032982f0005
:1014600023ea2300a5ff07000001eb0003f023009f
:101470000b00a70003f8230022fe0700d5fe07009b
:101480000000a7000a00a200f3fe07000b00e00026
:10149000030032000200200003f0230018fe0700c2
:1014a00001f0a2000006be00020020009304240008
:1014b00092ff07000801be0012fe0700809fbe00d9
:1014c0000c00be0022a22a00d3a723008bff070036
:1014d0004f01be000bfe07000004be0001f0a1009a
:1014e0000200200003982300b6fe07000800be009b
:1014f000190035000001be0080ff07000006be0095
:10150000b2c52900e36223007cff070022222b00e2
:10151000f3942b00fbfd07000c01be0077ff0700d2
:10152000e273280083c02300f6fd07000c01be0013
:1015300072ff070042aa2a00a3e22b00f1fd070078
:101540000c01be006dff07000801be006bff070025
:101550000801be00ebfd07000a00a70001f0a20091
:101560004f06be004f05be004f04be00000006003f
:101570000001eb0095ff37006022b8000602200052
:101580000000d0008180d2000482d2008582d20087
:101590000000a0000202520083825a0003003100c2
:1015a0000202420083824a000000a1000603e90013
:1015b000f3ff3a0000000600889fbe008a9fbe002d
:1015c000841f780035ff07004f00780011003300ba
:1015d000f0ff2f00838f6c0006003b0004056500c0
:1015e0000a00a7000800370009f0a600100020003c
:1015f00008003700820f5400838f5c00030039001d
:101600001000200001003e000000200009f0a700ab
:101610000000ea004f05be004f04be000000e000dd
:1016200000000600881f7800030478000300e00033
:1016300007003d0060001000e08018006001190004
:10164000e081190002003b0001f02d00030037008b
:101650000400070008f0a70001f0a0004f04780084
:1016600000000600889fbe008a9fbe0000827000b6
:101670000402710004827100260032000004be00e2
:101680000200be006011b8006b0920009502200026
:101690000182cf000a0039000541b1000082cf006d
:1016a000070039000541b1000982cf00040039006c
:1016b0000541b1000882cf00010039000541b100a9
:1016c00005425200120032000a003b008281710084
:1016d000610164008100d1000080d3008984d300bf
:1016e0000884d3008b05e8000442e800f7ff3a00c5
:1016f000070037000804440089844c0000004800bb
:10170000818048008b05e9000442e900f9ff3a00b6
:10171000a7fe07004f05be004f04be0000000600f4
:101720000002780002003700315a78000201e90017
:10173000e00f5100fcff3a000000060000027800b4
:1017400002003700015a78000201e900e00f510061
:08175000fcff3a000000060056
:020000040000fa
:1017580050490000442f00004c65000066740000ea
:1017680000500000494400002f5200006967000043
:101778006874000000560000656c00006f6300008c
:1017880069740000790000004f6400006f6d00006c
:0c17980065740000727900000000000081
:020000040000fa
:1017a4000000fa00a4702d0035d22300c47b880009
:1017b400d57b8800a4702d0035d22300a47b88003b
:1017c400b57b8800d4cc2c00c5e42300e47b8800de
:1017d400f57b8800a4d8200055bd2400247c880013
:1017e400357c8800a4d8200055bd2400047c8800e2
:1017f400157c8800342d200075932300647c8800b8
:10180400757c8800342d200075932300447c880067
:10181400557c880074712b00158d2300847c88000e
:10182400957c880004002100a47c8800380007000f
:10183400e6f920006022b800048bbe00e6f920001f
:101844006022b800240398003503980066fa20004b
:101854006022b800048bbe0066fa20006022b80043
:10186400240398003503980084fc20008002eb00d8
:101874001502980084fc20008002eb0025029800e9
:1018840084fc20008002eb00050a780084fc200020
:101894008002eb003502980004fd20008002eb007a
:1018a4001502980004fd20008002eb002502980038
:1018b40004fd20008002eb00050a780004fd2000ee
:1018c4008002eb003502980066f9200004002c0029
:1018d400a5652400048bbe0066f9200004002c00da
:1018e400a565240024039800350398000400200013
:1018f40005f82300347f8800457f880065fc2000bc
:101904000042eb00844a78000080fa0000000600e0
:101914000000fa00c47b8000d57b80000200200018
:10192400a34724000400be0073fe07000002be00ab
:101934000400be00a6fd07000002be0004027800f9
:10194400cfa2de00f47f880005808800a47b80009d
:10195400b57b800002002000a34724000400be00e1
:1019640065fe07000002be000400be0098fd0700eb
:101974000002be0004027800cfa2de0014808800ba
:1019840025808800e47b8000f57b80000200200035
:10199400a34724000400be0057fe07000002be0057
:1019a4000400be008afd07000002be0004027800a5
:1019b400cfa2de003480880045808800047c80004b
:1019c400157c80000400be0081fd07000002be00fb
:1019d4007480880085808800247c8000357c8000a9
:1019e4000400be007afd07000002be005480880097
:1019f40065808800c67b8000d77b8000647c800083
:101a0400757c80000401be000600be003afe07009b
:101a14000002be0026ff2000048bbe00a67b8000cf
:101a2400b77b8000447c8000557c80000401be00ac
:101a34000600be0030fe07000002be0026ff2000a4
:101a44002403980035039800e47b8000f57b800034
:101a540002002000030024000400be0007fd07006c
:101a64000002be00d47f8800e57f880004002000c7
:101a740005f82300c47e8800d57e8800441f20001a
:101a8400e47e88000080fa00000006000000fa00ee
:101a9400a499290095f12300747d8800857d880030
:101aa4003433230035f32300947d8800a57d88001a
:101ab400d4cc2c00c5dc2300b47d8800c57d88000f
:101ac400a499290095f12300d47d8800e57d880040
:101ad4003433230035f32300f47d8800057e880029
:101ae400d4cc2c00c5dc2300147e8800257e88001d
:101af4000080fa00000006000000fa00881f780049
:101b0400747d8000857d800018c0b3006011b8002a
:101b14000400be002afd070000027800e00f520016
:101b2400010035000044eb00e04f54001100320086
:101b3400747d8000857d80000200200003702400f5
:101b44000400be00ecfd07000002be0002002000fd
:101b540003f023000400be0068fc07000002be007e
:101b64000400be001afd07000002be000402780053
:101b740010003700747d8000857d800002e02f0016
:101b8400f36f24000400be00dbfd07000002be006a
:101b94000200200003f023000400be0058fc0700ec
:101ba4000002be000400be0009fd07000002be00e2
:101bb40004027800d47a8800947d8000a57d80009a
:101bc40018c0b3006011b8000400be00fcfc07009c
:101bd40000027800e00f5200010035000044eb00e1
:101be400e04f540011003200947d8000a57d8000f8
:101bf40002002000037024000400be00befd0700a4
:101c04000002be000200200003f023000400be0016
:101c14003afc07000002be000400be00ecfc070012
:101c24000002be000402780010003700947d80009a
:101c3400a57d800002e02f00f36f24000400be00a5
:101c4400adfd07000002be000200200003f02300e7
:101c54000400be002afc07000002be000400be000f
:101c6400dbfc07000002be0004027800e47a88006e
:101c7400747d8000857d800018c0b3006011b800b9
:101c84000400be00cefc070000027800e00f520002
:101c9400010035000044eb00e04f54001100320015
:101ca400747d8000857d8000020020000370240084
:101cb4000400be0090fd07000002be0002002000e8
:101cc40003f023000400be000cfc07000002be0069
:101cd4000400be00befc07000002be00040278003f
:101ce40010003700747d8000857d800002e02f00a5
:101cf400f36f24000400be007ffd07000002be0055
:101d04000200200003f023000400be00fcfb0700d7
:101d14000002be000400be00adfc07000002be00cd
:101d240004027800f47a8800930007004f047800d6
:101d34000080fa00000006000000fa00881f780006
:101d4400d47d8000e57d800018c0b3006011b80028
:101d54000400be009afc070000027800e00f520065
:101d6400010035000044eb00e04f54001100320044
:101d7400d47d8000e57d80000200200003702400f3
:101d84000400be005cfd07000002be00020020004b
:101d940003f023000400be00d8fb07000002be00cd
:101da4000400be008afc07000002be0004027800a2
:101db40010003700d47d8000e57d800002e02f0014
:101dc400f36f24000400be004bfd07000002be00b8
:101dd4000200200003f023000400be00c8fb07003b
:101de4000002be000400be0079fc07000002be0031
:101df40004027800547b8800f47d8000057e800016
:101e040018c0b3006011b8000400be006cfc0700e9
:101e140000027800e00f5200010035000044eb009e
:101e2400e04f540011003200f47d8000057e8000f4
:101e340002002000037024000400be002efd0700f1
:101e44000002be000200200003f023000400be00d4
:101e5400aafb07000002be000400be005cfc0700f1
:101e64000002be000402780010003700f47d8000f8
:101e7400057e800002e02f00f36f24000400be0002
:101e84001dfd07000002be000200200003f0230035
:101e94000400be009afb07000002be000400be005e
:101ea4004bfc07000002be0004027800647b88003b
:101eb400147e8000257e800018c0b3006011b80035
:101ec4000400be003efc070000027800e00f520050
:101ed400010035000044eb00e04f540011003200d3
:101ee400147e8000257e8000020020000370240000
:101ef4000400be0000fd07000002be000200200036
:101f040003f023000400be007cfb07000002be00b7
:101f14000400be002efc07000002be00040278008c
:101f240010003700147e8000257e800002e02f0020
:101f3400f36f24000400be00effc07000002be00a3
:101f44000200200003f023000400be006cfb070025
:101f54000002be000400be001dfc07000002be001b
:101f640004027800747b88000f0007004f04780097
:101f74000080fa00000006000000fa00048020003f
:101f8400847a8800847c2400947a880000f52000f8
:101f940006fb070001f52000a0f520000efb07005a
:101fa4000080fa00000006000000fa0064802000af
:101fb400047b8800e47c2400147b880000f6200065
:101fc400fafa070001f62000a0f6200002fb070041
:101fd4000080fa00000006000000fa00889fbe009e
:101fe4008a9fbe00047e240014427800e04f520011
:101ff4000d003200e4f920001402be00e6fd2000ca
:10200400048bbe00e4f92000b40290002402900086
:10201400e6fd20002403980035039800057e240083
:102024000042eb00844a7800e4f920001404be0066
:10203400e4fd20001405be00c43e8200cfa2de00f1
:102044000400be0003fc07000002be0002002000e2
:10205400a34724000400be0088fb07000002be0062
:102064000401be000a00be00a3fc07000002be007b
:102074000403be00c47e8000d57e80000401be003f
:102084000600be007dfb07000002be000401be0086
:102094000800be0019fb07000002be00e6f920009c
:1020a400048bbe00e4f9200024049000b4049000e2
:1020b400e4fd200024059000b4059000c43e820095
:1020c400cfa2de000400be00e2fb07000002be0057
:1020d40002002000a34724000400be0067fb0700a1
:1020e4000002be000401be000a00be0082fc07001c
:1020f4000002be000403be00c47e8000d57e8000c2
:102104000401be000600be005cfb07000002be0026
:102114000401be000800be00f8fa07000002be0079
:10212400e6f920002403980035039800e4fd20001c
:102134001402be0018c0b3006011b8000400be0051
:102144009ffb070000027800e00f520001003500f9
:102154000044eb00e04f5400030032000400200070
:1021640005f82b000c003700e4fd20001402be002b
:102174006011b8000400be0091fb07000002780063
:10218400e00f520002003a006022b800020037005b
:102194000400200005f82300e6f920001603be0021
:1021a4000601be000400be0053fc07000002be008e
:1021b40018c0b3006011b8000400be0080fb070023
:1021c40000027800e00f5200010035000044eb00eb
:1021d400e04f540003003200e6f920006022b8000a
:1021e400048bbe00e4fd2000b402900024029000a1
:1021f40018c0b3006011b8000400be0070fb0700f3
:1022040000027800e00f5200010035000044eb00aa
:10221400e04f5400030032000400200005f82b00b6
:102224000d003700e4fd2000b40290002402900069
:102234006011b8000400be0061fb070000027800d2
:10224400e00f520002003a006022b800020037009a
:102254000400200005f82300e6f92000b6039000ee
:10226400260390000601be000400be0022fc070005
:102274000002be0018c0b3006011b8000400be0024
:102284004ffb070000027800e00f52000100350008
:102294000044eb00e04f540004003200e6f9200053
:1022a4006022b8002403980035039800e4f9200064
:1022b4001402be006011b8000400be0040fb070019
:1022c40000027800e00f52000e003a00e4f920000a
:1022d400b4029000240290006011b8000400be0013
:1022e40037fb070000027800e00f520005003a00b7
:1022f400057e240014c0b300844a780014c0b300df
:10230400010037000042eb00044078004f05be0096
:102314004f04be000080fa00000006000e00fa0020
:10232400889fbe008a9fbe0004088000040f7800c6
:1023340064fc200014427800614262000482fb00c5
:10234400610262004222dd0066168000b5ff2f00a4
:1023540085026300050272006416880064fc200094
:1023640014427800614262000482fb006102620050
:102374004322dd006616800075ff2f00850263008e
:102384000502720064168800168080002780800091
:1023940004fd200024029000cfa2de0004b8b9009e
:1023a4000000780006a9b90082007800010040000e
:1023b40006037800040278000433b80007004000e4
:1023c40080037800f07f80000180800084fc20007e
:1023d40024029000cfa2de000489b9000201780033
:1023e40000acb900880178000301410000007800c6
:1023f400040278000402b80005014100820278005a
:102404000602420087824a004f2bde0007002000ac
:102414000602420087824a008582d1000482d300ea
:1024240014079800250798001680800027808000f4
:1024340004fd200024029000cfa2de0004b8b900fd
:102444000000780006a9b90082007800010040006d
:1024540006037800040278000433b8000700400043
:1024640080037800f07f80000180800084fc2000dd
:1024740024029000cfa2de000489b9000201780092
:1024840000acb90088017800030141000000780025
:10249400040278000402b8000501410082027800b9
:1024a4000403530085835b003480800045808000f2
:1024b4000402420085824a000401be000600be00f8
:1024c400b0fa07000002be003407980045079800e0
:1024d4001e009000ae009000defa07000002be006d
:1024e40002402200439724000400be0063fa070060
:1024f4000002be0066fa2000048bbe003e0090007d
:10250400ce009000d3fa07000002be0002002000b3
:10251400a34724000400be0058fa07000002be00ce
:1025240066fa20002403980035039800a47b8000f9
:10253400b57b80000401be000000200001f82300e8
:102544004efa07000002be000404be00e4f92000b5
:102554001405be00e67b8000f77b8000e4f92000d0
:10256400b40290002402900005f0a2000401be0011
:102574000600be0060fb07000002be000401be00ae
:102584000a00be00def907000002be000401be001e
:102594000800be0058fb07000002be000200200035
:1025a400a34724000400be0053fb07000002be0042
:1025b4000400be0086fa07000002be00540798001b
:1025c400c47b8000d57b80000401be000000200095
:1025d40001f8230029fa07000002be000404be002b
:1025e400e4f920001405be00e67b8000f77b800040
:1025f400e4f92000b4029000240290000401be001b
:102604000600be003cfb07000002be000401be0041
:102614000a00be00baf907000002be000401be00b1
:102624000800be0034fb07000002be0002002000c8
:10263400a34724000400be002ffb07000002be00d5
:102644000400be0062fa07000002be00640798009e
:102654005e02900004f0a7000402ea00cfa2de00ac
:102664000400be007bfa07000003be0064f92000ea
:102674001402be0018c0b3000401be000600be0070
:1026840051fa070000027800e00f520001003c00fc
:102694000044eb00e04f54001a0032005e02900048
:1026a400e00f5200080035005e029000e00f520077
:1026b40002003a006022b800020037000400200043
:1026c40005f82300020037000400200005f82b0061
:1026d40066f920001603be000601be000400be0019
:1026e40005fb07000002be000400be0038fa070024
:1026f4000002be008402780084fc2000050a7800f1
:102704000300370084fc2000de029000050a7800f4
:102714006e02900004f0a7000402ea00cfa2de00db
:102724000400be004bfa07000003be0064f9200059
:10273400b40290002402900018c0b3000401be004b
:102744000600be0020fa070000027800e00f5200e5
:1027540001003c000044eb00e04f54001b00320039
:102764006e029000e00f5200080035006e029000e7
:10277400e00f520002003a006022b8000200370065
:102784000400200005f823000200370004002000a4
:1027940005f82b0066f92000b6039000260390008c
:1027a4000601be000400be00d3fa07000002be000a
:1027b4000400be0006fa07000002be00840278008e
:1027c40004fd2000050a78000300370004fd200002
:1027d400ee029000050a7800040880001e025200f0
:1027e400040078004f05be004f04be000080fa00cc
:1027f400000006000800fa00889fbe008a9fbe0001
:1028040004088000040f7800f480800005818000b3
:1028140014079800250798006022b800f480880007
:102824000581880034818000340798000002eb00a1
:102834003481880084fc20008002eb00250298008b
:10284400857b8000240f800004824200847b880002
:102854000002eb00240f88003e029000e00f5200bb
:10286400190032003e029000cfa2de000400be0038
:10287400f8f907000004be002a7c80003b7c80003d
:102884001e009000ae009000f5f907000002be00a3
:102894000401be000a00be0078f907000002be0071
:1028a4000401be000800be0093fa07000002be0047
:1028b4000400be00c6f907000002be0084027800ce
:1028c40084fc20002502980084fc20001402780077
:1028d400c47a880084fc200024029000b47a880022
:1028e40000f5200095f80700a47a800044a2de00d9
:1028f400158020008482520084fc20001502980078
:1029040084fc2000140290000041eb008400780055
:1029140010002000ecf80700040880001e0252009a
:10292400040078004f05be004f04be000080fa008a
:10293400000006000800fa00889fbe008a9fbe00bf
:1029440004088000040f7800148180002581800031
:1029540014079800250798006022b80014818800a5
:102964002581880044818000340798000002eb0030
:102974004481880004fd20008002eb0025029800b9
:10298400957b8000a40f800004824200947b880021
:102994000002eb00a40f88003e029000e00f5200fa
:1029a400190032003e029000cfa2de000400be00f7
:1029b400a8f907000004be000a7c80001b7c80008c
:1029c4001e009000ae009000a5f907000002be00b2
:1029d4000401be000a00be0028f907000002be0080
:1029e4000401be000800be0043fa07000002be0056
:1029f4000400be0076f907000002be0084027800dd
:102a040004fd20002502980004fd20001402780033
:102a1400447b880004fd200024029000347b88005d
:102a240000f6200045f80700247b8000c4a2de00e5
:102a3400148020008482420004fd200015029800c6
:102a440004fd2000140290000041eb008400780093
:102a5400200020009cf80700040880001e02520099
:102a6400040078004f05be004f04be000080fa0049
:102a7400000006000e00fa000002eb00040f7800cc
:102a84006022b80034079800450798006022b80017
:102a940054079800650798000002eb00040f7800c3
:102aa4001a0037003e039000ce0390001e02780007
:102ab400840242000460240004824200140278006c
:102ac400cfa2de000602420087824a003407980043
:102ad400450798005e039000ee0390000504200073
:102ae4001e824200840242000460240004824200e8
:102af40014027800cfa2de000602420087824a0058
:102b040054079800650798001e0fe800f40320009e
:102b14009e027800848f5200e2ff340034818000ea
:102b24001407980044818000240798002e02900026
:102b34006123b9003e029000ce02900004b8b900af
:102b44000000780006a9b900820078000100400066
:102b540006037800040278000432b800050040003f
:102b6400800278004a2bdd004622de000402730056
:102b7400c6aade008402780084fc20003502980096
:102b84002e0290006123b9005e029000ee029000d4
:102b940004b8b9000000780006a9b90082007800e2
:102ba4000100400006037800040278000432b800f3
:102bb40005004000800278004a2bdd004622de003a
:102bc40004027300c6aade008402780004fd20001b
:102bd400350298000080fa00000006000000fa00a8
:102be4005401200084868800a40120009486880073
:102bf400a4012000a4868800a4012000b4868800d3
:102c040044002000c4868800a4012000d4868800e3
:102c140064012000e4868800c40020002487880022
:102c2400c400200034878800840020004487880082
:102c340084002000548788000401200064878800f1
:102c44002402200074878800840020008487880080
:102c5400840020009487880084002000a4878800d2
:102c640014002000b487880064002000c487880012
:102c740004642000d48788000080fa000000060065
:102c84009e0cfa00881f78000464200004024700a8
:102c9400000a78002464200004024700010a780036
:102ca400c49b2f00e602570004824200a442900015
:102cb40044c4b30084cf520009013a00c49b2f00de
:102cc400e602570004824200344290000482fb0072
:102cd400cfa2de006600200007002000860f52000d
:102ce400878f5a00dd003e000460010006003700b3
:102cf400b9003700390037005f003700b6003700ed
:102d0400b500370084003700446420000402470003
:102d1400c59b2f006603570005034300f687470051
:102d2400f6825700e400430009000900b11a780054
:102d3400b15a78005501b10004007800e00707009b
:102d4400f687570044642000040247001400090079
:102d5400345f78005e01b1005401b10024642000a6
:102d640004024700940278004464200004aab900d5
:102d7400040278000564200085024700150442001f
:102d8400c49b2f00e602570004824200a442900034
:102d9400c49b2f0066035700040243003442900092
:102da400a6652000060347008e01780005417800df
:102db40084407800060078007b030700a4652000a7
:102dc400040247004564200021030900341c7800f4
:102dd4000504540005025200d6003700c49b2f009e
:102de400e60257000482420046042100e403420044
:102df4000c000900371b78002464200004024700fb
:102e0400940278004464200004aab9000402780003
:102e1400056420008502470015044200c49b2f006e
:102e2400e60257000482420024439000c49b2f0012
:102e3400e602570004824200b44290004464200039
:102e4400840347000002eb0086417800b2c4b3005b
:102e54008540780007007800f702070044642000ea
:102e6400040247004164200021030900341c780057
:102e74000104540001025200c49b2f00e6025700d3
:102e840004824200e5052100640342000c000900ad
:102e9400b61a7800246420000402470094027800e3
:102ea4004464200004aab9000402780005642000e8
:102eb4008502470015044200c49b2f00e602570018
:102ec4000482420024439000c49b2f00e602570072
:102ed40004824200b442900044642000840347000a
:102ee4000002eb0086417800b2c4b300854078004c
:102ef40007007800d0020700446420000402470061
:102f04004764200021030900341c7800070454009e
:102f14000702520087003700c49b2f00e6025700c7
:102f240004824200a402900044642000040247008a
:102f340085007800040078000e0707004464200030
:102f4400040247000a000900341f78006e01b10032
:102f54006401b10024642000040247009402780054
:102f64004464200004aab900040278000564200027
:102f74008502470015044200c49b2f00e602570057
:102f840004824200a4429000c49b2f0066035700b1
:102f940004024300344290004664200006034700c4
:102fa4008e0178000541780084407800060078009e
:102fb400fd0207004464200004024700416420002d
:102fc40021030900341c780001045400010252005a
:102fd400000000005700370024642000040247006a
:102fe400940278004464200004aab9000402780022
:102ff400056420008502470015044200c49b2f008d
:10300400e60257000482420024439000c49b2f0030
:10301400e602570004824200b44290004464200057
:10302400840347000002eb0086417800e2c4b30049
:1030340085407800070078007f0207004464200080
:10304400040247004564200021030900341c780071
:1030540005045400050252003600370024642000a1
:1030640004024700940278004464200004aab900d2
:10307400040278000564200085024700150442001c
:10308400c49b2f00e60257000482420024439000b0
:10309400c49b2f00e602570004824200b442900011
:1030a40044642000840347000002eb00864178005a
:1030b400e2c4b30085407800070078005e02070090
:1030c40044642000040247004664200021030900f0
:1030d400341c780006045400060252001500370020
:1030e4002464200084024700046420000402470092
:1030f400c69b2f00e60357008683430046642000e6
:1031040086874700c69b2f00068347004164200042
:1031140021030900371b7800010353008183530006
:103124009500780014007800af020700c49b2f00bc
:10313400848747004f0478000080fa0000000600ee
:103144009e0cfa00881f78000464200004024700e3
:10315400000a78002464200004024700010a780071
:10316400c49b2f00e602570004824200a442900050
:1031740044c4b30084cf52001b013a00c49b2f0007
:10318400e602570004824200344290000482fb00ad
:10319400cfa2de005600200007002000860f520058
:1031a400878f5a00ef003e000460010005003700dd
:1031b40080003700380037005a003700a10037007c
:1031c400c30037004464200004024700c59b2f005d
:1031d4006603570005034300f6874700f68257004d
:1031e400e400430009000900b11a7800b15a7800dc
:1031f4005501b10004007800b1060700f6875700b6
:10320400446420000402470014000900345f78007d
:103214005e01b1005401b10024642000040247009f
:10322400940278004464200004aab90004027800df
:10323400056420008502470015044200c49b2f004a
:10324400e602570004824200a4429000c49b2f006f
:10325400660357000402430034429000a665200030
:10326400060347008e017800054178008440780009
:10327400060078004c020700a46520000402470001
:103284004564200021030900341c7800050454001f
:1032940005025200e9003700470421000c00090030
:1032a400371f7800ae01b1002464200004024700f7
:1032b400940278004464200004aab900040278004f
:1032c400056420008502470015044200c49b2f00ba
:1032d400e602570004824200a4429000c49b2f00df
:1032e4006603570004024300344290004664200001
:1032f400060347008e017800054178008440780079
:1033040006007800280207004464200004024700f5
:103314004164200021030900341c78000104540096
:1033240001025200e40521000c000900341f78005a
:10333400ae01b10024642000040247009402780026
:103344004464200004aab900040278000564200043
:103354008502470015044200c49b2f00e602570073
:1033640004824200a4429000c49b2f0066035700cd
:1033740004024300344290004664200006034700e0
:103384008e017800054178008440780006007800ba
:10339400050207004464200004024700456420003d
:1033a40021030900341c780005045400050252006e
:1033b400a2003700a70221000c000900371f780083
:1033c400ae01b10024642000040247009402780096
:1033d4004464200004aab9000402780005642000b3
:1033e4008502470015044200c49b2f00e6025700e3
:1033f40004824200a4429000c49b2f00660357003d
:10340400040243003442900046642000060347004f
:103414008e01780005417800844078000600780029
:10342400e1010700446420000402470041642000d5
:1034340021030900341c78000104540001025200e5
:103444007e003700b43e8200c53e8200048fbe0079
:10345400246420000402470094027800446420009d
:1034640004aab9000402780005642000850247001c
:1034740015044200c49b2f00e60257000482420058
:10348400a4429000c49b2f0066035700040243002b
:103494003442900046642000060347008e01780001
:1034a400054178008440780006007800be010700da
:1034b40044642000040247004564200021030900fd
:1034c400341c780005045400050252005b003700e8
:1034d40067f320000c000900371f7800ae01b1002b
:1034e400246420000402470094027800446420000d
:1034f40004aab9000402780005642000850247008c
:1035040015044200c49b2f00e602570004824200c7
:10351400a4429000c49b2f0066035700040243009a
:103524003442900046642000060347008e01780070
:103534000541780084407800060078009a0107006d
:103544004464200004024700416420002103090070
:10355400341c7800010454000102520000000000f1
:1035640036003700246420000402470094027800e7
:103574004464200004aab900040278000564200011
:103584008502470015044200c49b2f00e602570041
:103594000482420024439000c49b2f00e60257009b
:1035a40004824200b4429000446420008403470033
:1035b4000002eb0086417800e2c4b3008540780045
:1035c400070078001c01070044642000040247003f
:1035d4004564200021030900341c780005045400cc
:1035e40005025200150037002464200084024700bd
:1035f4000464200004024700c69b2f00e603570022
:10360400868343004664200086874700c69b2f00bc
:10361400068347004164200021030900371b78001a
:10362400010353008183530095007800140078004f
:10363400f2020700c49b2f00848747004f047800e0
:103644000080fa0000000600fe3ffa00ef1fb00001
:10365400ef1fb000ef1fb000ef1fb000ef1fb0006e
:10366400ef1fb000f0874700010880002107980091
:103674000002eb00140798000002eb00040f78002e
:10368400240037009e82e80064e6200004824200a1
:10369400144278000483fb009e02780084e6200034
:1036a40084824200a4f72300040247000601780044
:1036b400850078000400780018f807009e02900046
:1036c4004464200004aab9000402780004024700fc
:1036d40066024200a5f723008502470046642000e5
:1036e40021030900351a780006025200868252002e
:1036f4001e0290000402e800140798009e82e8006d
:1037040064e6200004824200144278000482fb0034
:103714001e0f42009e02780034738000848f520092
:10372400d8ff39000002eb00040f78003e00370098
:10373400e45b2400040347009e02780044642000f4
:1037440004aab9000402780004024700e603420018
:103754002132800021030900371b78000103530044
:10376400e45b240004024700144290000482fb003e
:1037740045042000850f5200040032002505200076
:10378400850f520014003200260037009e02780094
:1037940066024700e65b2400860347004664200077
:1037a40086874700c69b2f0006834700416420009c
:1037b40021030900371b7800010353008183530060
:1037c40085007800040078002dfd0700c49b2f00bd
:1037d40084874700130037009e0278006602470082
:1037e400e65b240086034700466420008687470082
:1037f400c69b2f0006834700416420002103090073
:10380400371b78000103530081835300850078003f
:10381400040078004afe0700c49b2f0084874700f9
:10382400000000001e0fe8009e0278001e029000b7
:10383400848f5200beff3900e4ea230004024700eb
:10384400e60247001e01900085007800040078001d
:1038540019000700e4ea2300040247001402780078
:10386400e00f52000e00320024f3200014427800ce
:10387400e5ea230005034700cf0cb00045f32f0011
:103884008f82420065000900b61a7800c50cb100a9
:10389400c60cb1000440780062090700cf0cb100e7
:1038a400050880002e029000048252000400780073
:1038b4000080fa00000006001607fa00881f78004e
:1038c400000478002471200004024700010a7800f3
:1038d4004471200004024700020a78000002eb0051
:1038e400140798000002eb00040f78001f00370053
:1038f4009e0278004464200004aab90004027800ff
:10390400257120008502470015024200e50c2000c5
:10391400850247002632800021030900b41a78008a
:10392400060252006eca91000483fb001e0290003e
:103934008e82e8008582e80004824200e50c2000c3
:103944008e82420006017800850078000400780029
:1039540072f707009e0290006eca91000482fb0079
:1039640004824200140798001e0fe8009e027800ab
:103974004471200004024700948f5200dcff390098
:103984006202470065000900341c7800c80cb100cd
:10399400080078004f0478000080fa000000060058
:1039a4001007fa00881f780000047800c49b2f00d9
:1039b400e602570004824200144278000482fb00ad
:1039c4000402e800040f7800c49b2f00e6025700ad
:1039d40004824200c50c2000850247002632800084
:1039e40021030900b41a7800060252004eca91005d
:1039f4000482fb000402e80004037800c50c2000e4
:103a04008e8242000e82e80006017800850078006c
:103a14000400780041f70700650009003e1c7800a7
:103a2400c80cb100ce0cb100080078004f04780037
:103a34000080fa00000006004a06fa00881f780099
:103a4400000478004564200085024700814a78001c
:103a54005564200085024700824a7800656420008e
:103a640085024700834a7800856420008502470068
:103a7400840a7800446420000402470094427800d9
:103a840035479800546420000402470094427800ab
:103a940015479800646420000402470094427800ab
:103aa40025479800546420008402470044c4b300ae
:103ab4009542780084cf520024003a0064642000c8
:103ac40004024700944278000582fb00450420006c
:103ad400850f520004003200d5042000850f5200e7
:103ae4000d0032001b00370044642000040247002c
:103af400944278000582fb0084024200040d2100f8
:103b040004824200140278000442780064424200b5
:103b1400044f78000f00370044642000040247007b
:103b2400944278000582fb0084024200440e210086
:103b34000482420014027800044278006442420085
:103b4400044f7800000000000200370044c0b300b6
:103b5400044f7800846420000402470014027800b3
:103b6400e00f520007003200846420008402470002
:103b74006402470002642000950078000400780085
:103b8400e6f6070044642000210309003e1c780087
:103b94000404540004075700080078004f04780018
:103ba4000080fa00000006000400fa00881f780074
:103bb40000047800014f780012479800130798001a
:103bc4001e0290009e41900042c4b3009e407800c3
:103bd4000800780098ff0700080078004f04780078
:103be4000080fa00000006004806fa00889fbe0024
:103bf4008a9fbe00000f780011079800c49b2f0015
:103c0400e602570004824200a4429000d4c4b300e8
:103c140084cf520075013a00c49b2f00e60257007e
:103c240004824200344290000482fb00cfa2de00f2
:103c3400b600200007002000860f5200878f5a002c
:103c440050013e00046001000b00370036003700cd
:103c540032013700310137005f0037008000370040
:103c6400a1003700c40037002c013700e8003700fa
:103c74000701370029013700c49b2f00e6025700d3
:103c84000482420064024200e5fa2000b41a78007b
:103c9400a4127800e482420064024200b41a78005c
:103ca400a4127800e482420064024200b41a78004c
:103cb400a4127800e4824200640242008ef70700f6
:103cc4009e0290004464200004aab9000402780013
:103cd4001e044200c49b2f00e602570004824200e7
:103ce40024439000c49b2f00e60257000482420044
:103cf400b4429000e40347000002eb0086417800e0
:103d0400b2c4b30085407800070078004aff07007a
:103d1400640247002532800021030900341c780026
:103d24000504540031013700c49b2f00e6025700fc
:103d34000482420064024200a5fb2000b41a780009
:103d4400a4127800e482420064024200b41a7800ab
:103d5400a4127800e482420064024200b41a78009b
:103d6400a4127800e482420064024200f2f70700e1
:103d74009e0290004464200004aab9000402780062
:103d84001e044200c49b2f00e60257000482420036
:103d940024439000c49b2f00e60257000482420093
:103da400b4429000e40347000002eb00864178002f
:103db400b2c4b30085407800070078001eff0700f6
:103dc400640347002732800021030900361c780071
:103dd4000704540005013700c49b2f00e602570076
:103de40004824200e8802000e40442000700090045
:103df400391c7800c10507009e029000446420002d
:103e040004aab900040278001e044200c49b2f00d7
:103e1400e60257000482420024439000c49b2f0012
:103e2400e602570004824200b4429000e4034700d3
:103e34000002eb0086417800b2c4b30085407800ec
:103e440007007800fcfe0700640547002b32800061
:103e5400210309003a1c78000b045400e3003700e6
:103e6400c49b2f00e60257000482420045f720005d
:103e74006403420010000900b61a7800a4f6070093
:103e84009e0290004464200004aab9000402780051
:103e94001e044200c49b2f00e60257000482420025
:103ea40024439000c49b2f00e60257000482420082
:103eb400b4429000e40347000002eb00864178001e
:103ec400b2c4b3008540780007007800dafe07002a
:103ed400e40347002932800021030900371c7800dd
:103ee40009045400c100370064f92000c59b2f0069
:103ef400660357008502430025049000b504900032
:103f040045059000d5059000089abe000a92be00af
:103f14009e0290004464200004aab90004027800c0
:103f24001e044200c49b2f00e60257000482420094
:103f340024439000c49b2f00e602570004824200f1
:103f4400b4429000e40347000002eb00864178008d
:103f5400b2c4b3008540780007007800b6fe0700bd
:103f6400e40447002a32800021030900391c780048
:103f74000a0454009d003700e4f92000c59b2f007b
:103f8400660357008502430025049000b5049000a1
:103f940045059000d5059000089abe000a92be001f
:103fa4000002eb00948088009e029000446420008c
:103fb40004aab900040278001e044200c49b2f0026
:103fc400e60257000482420024439000c49b2f0061
:103fd400e602570004824200b4429000e403470022
:103fe4000002eb0086417800b2c4b300854078003b
:103ff4000700780090fe0700e40447002a3280009e
:1040040021030900391c78000a04540077003700a2
:10401400c49b2f00e60257000482420044429000f1
:1040240065fc2000844a78009e02900044642000cd
:1040340004aab900040278001e044200c49b2f00a5
:10404400e60257000482420024439000c49b2f00e0
:10405400e602570004824200b4429000e4034700a1
:104064000002eb0086417800b2c4b30085407800ba
:104074000700780070fe0700e40547002432800042
:10408400210309003b1c7800040454005700370046
:10409400c49b2f00e60257000482420024039000d0
:1040a400b4039000c67e8800d77e8800c4039000c5
:1040b400e77e88009e0290004464200004aab900b0
:1040c400040278001e044200c49b2f00e60257003d
:1040d4000482420024439000c49b2f00e602570050
:1040e40004824200b4429000e40347000002eb0063
:1040f40086417800b2c4b300854078000700780098
:104104004dfe0700e40447002a3280002103090021
:10411400391c78000a045400340037009e029000d1
:104124004464200004aab900040278001e0442007a
:10413400c49b2f00e60257000482420024439000ef
:10414400c49b2f00e602570004824200b442900050
:10415400e40347000002eb0086417800e2c4b300a8
:10416400854078000700780033fe0700e405470027
:1041740024328000210309003b1c7800040454000d
:104184001a0037009e0290004464200004aab9007b
:10419400040278001e044200c49b2f00e60257006c
:1041a4000482420024439000c49b2f00e60257007f
:1041b40004824200b4429000e40347000002eb0092
:1041c40086417800e2c4b300854078000700780097
:1041d40019fe0700e402470026328000210309008b
:1041e400351c780006045400000000004f05be0092
:1041f4004f04be000080fa0000000600880cfa009c
:10420400889fbe008a9fbe00046420000402470009
:10421400000a78002464200004024700010a7800a0
:10422400c49b2f00e602570004824200a44290007f
:10423400d4c4b30084cf52000d023a00c49b2f00b3
:10424400e602570004824200344290000482fb00dc
:10425400cfa2de00b600200007002000860f520027
:10426400878f5a00e1013e00046001000b00370013
:1042740038003700490137006d013700630037000b
:10428400ab003700ce003700f20037008d01370055
:1042940015013700b001370080003700e4fa200030
:1042a4008e027800b41a7800a4127800e4824200e6
:1042b40064024200b41a7800a4127800e482420036
:1042c40064024200b41a7800a4127800e482420026
:1042d400640242002464200004024700940278002f
:1042e4004464200004aab900040278000564200094
:1042f4008502470015044200c49b2f00e6025700c4
:1043040004824200a4429000c49b2f00660357001d
:104314000402430034429000466420000603470030
:104324008e0178000541780084407800060078000a
:104334001dfe070044642000040247004564200079
:1043440021030900341c78000504540005025200be
:10435400c7013700a4fb20008e027800b41a78004d
:10436400a4127800e482420064024200b41a780085
:10437400a4127800e482420064024200b41a780075
:10438400a4127800e4824200640242002464200003
:1043940004024700940278004464200004aab9008f
:1043a40004027800056420008502470015044200d9
:1043b400c49b2f00e602570004824200a4429000ee
:1043c400c49b2f006603570004024300344290004c
:1043d40046642000060347008e01780005417800fa
:1043e4008440780006007800effd07004464200054
:1043f400040247004964200021030900341c7800aa
:10440400090454000902520099013700ea8020008f
:10441400070009003a1f78000e01b100246420004f
:1044240004024700940278004464200004aab900fe
:104434000402780005642000850247001504420048
:10444400c49b2f00e602570004824200a44290005d
:10445400c49b2f00660357000402430034429000bb
:1044640046642000060347008e0178000541780069
:104474008440780006007800cbfd070044642000e7
:10448400040247004b64200021030900341c780017
:104494000b0454000b02520075013700e481200024
:1044a400053280001f030900341f780005075700f8
:1044b400246420000402470094027800446420002d
:1044c40004aab900040278000564200085024700ac
:1044d40015044200c49b2f00e602570004824200e8
:1044e400a4429000c49b2f006603570004024300bb
:1044f4003442900046642000060347008e01780091
:10450400054178008440780006007800a6fd070085
:104514004464200004024700496420002103090088
:10452400341c780009045400090252005001370079
:104534004af72000100009003a1f78002e02b1004b
:10454400246420000402470094027800446420009c
:1045540004aab9000402780005642000850247001b
:1045640015044200c49b2f00e60257000482420057
:10457400a4429000c49b2f0066035700040243002a
:104584003442900046642000060347008e01780000
:1045940005417800844078000600780082fd070019
:1045a40044642000040247004b64200021030900f6
:1045b400341c78000b0454000b0252002c01370009
:1045c40064f920003404be002405be00089fbe0028
:1045d4000a97be0024642000040247009402780075
:1045e4004464200004aab900040278000564200091
:1045f4008502470015044200c49b2f00e6025700c1
:1046040004824200a4429000c49b2f00660357001a
:10461400040243003442900046642000060347002d
:104624008e01780005417800844078000600780007
:104634005dfd070044642000040247004964200033
:1046440021030900341c78000904540009025200b3
:1046540007013700e4f920003404be002405be003d
:10466400089fbe000a97be0024642000040247008d
:10467400940278004464200004aab900040278007b
:10468400056420008502470015044200c49b2f00e6
:10469400e602570004824200a4429000c49b2f000b
:1046a400660357000402430034429000466420002d
:1046b400060347008e0178000541780084407800a5
:1046c4000600780038fd0700446420000402470017
:1046d4004964200021030900341c780009045400b3
:1046e40009025200e200370064168000640262008e
:1046f400e00f520006003200641680006802620077
:10470400e00f5200020032001400200001003700c4
:104714000002eb0004427800044f78002464200077
:1047240004024700940278004464200004aab900fb
:104734000402780005642000850247001504420045
:10474400c49b2f00e602570004824200a44290005a
:10475400c49b2f00660357000402430034429000b8
:1047640046642000060347008e0178000541780066
:1047740084407800060078000bfd070044642000a4
:10478400040247004a64200021030900341c780015
:104794000a0454000a025200b500370084fc2000c9
:1047a4003404be002405be00089fbe000a97be0064
:1047b400246420000402470094027800446420002a
:1047c40004aab900040278000564200085024700a9
:1047d40015044200c49b2f00e602570004824200e5
:1047e400a4429000c49b2f006603570004024300b8
:1047f4003442900046642000060347008e0178008e
:10480400054178008440780006007800e6fc070043
:104814004464200004024700496420002103090085
:10482400341c780009045400090252009000370037
:1048340004fd20003404be002405be00089fbe0011
:104844000a97be0024642000040247009402780002
:104854004464200004aab90004027800056420001e
:104864008502470015044200c49b2f00e60257004e
:1048740004824200a4429000c49b2f0066035700a8
:1048840004024300344290004664200006034700bb
:104894008e01780005417800844078000600780095
:1048a400c1fc07004464200004024700496420005e
:1048b40021030900341c7800090454000902520041
:1048c4006b00370064fa20003404be002405be00e7
:1048d400089fbe000a97be0024642000040247001b
:1048e400940278004464200004aab9000402780009
:1048f400056420008502470015044200c49b2f0074
:10490400e602570004824200a4429000c49b2f0098
:1049140066035700040243003442900046642000ba
:10492400060347008e017800054178008440780032
:10493400060078009cfc0700446420000402470041
:104944004964200021030900341c78000904540040
:104954000902520046003700ca7e8000db7e8000d8
:104964000a8fbe00eb7e80002b0798002464200091
:1049740004024700940278004464200004aab900a9
:1049840004027800056420008502470015044200f3
:10499400c49b2f00e602570004824200a442900008
:1049a400c49b2f0066035700040243003442900066
:1049b40046642000060347008e0178000541780014
:1049c400844078000600780077fc070044642000e7
:1049d400040247004564200021030900341c7800c8
:1049e400050454000502520021003700246420000d
:1049f40004024700940278004464200004aab90029
:104a04000402780005642000850247001504420072
:104a1400c49b2f00e6025700048242002443900006
:104a2400c49b2f00e602570004824200b442900067
:104a340044642000840347000002eb0086417800b0
:104a4400e2c4b3008540780007007800fafb070051
:104a54004464200004024700496420002103090043
:104a6400341c7800090454000902520000000000bc
:104a74004f05be004f04be000080fa00000006008f
:104a84000000fa000002eb00c483880092002000ba
:104a9400c1ba2800a007210020f307001400200059
:104aa40074848800a200200051bb28000009210062
:104ab4001af30700240020002485880092002000b7
:104ac400f1bb2800600a210014f307003400200021
:104ad400d48588009200200081bc2800c00b2100ee
:104ae4000ef30700f4ff2700b43e8a0014002000f0
:104af400c43e8a0044002000248288000002eb00a7
:104b0400348288001400200044828800340020008d
:104b1400548288003400200064828800340020001d
:104b240074828800240020008482880044002000cd
:104b3400f48288000002eb00048388000002eb008a
:104b440014838800140020002483880014002000ab
:104b5400348388001400200044838800a4002000cb
:104b64005483880044002000548188000080fa00a7
:104b7400000006001800fa00310f98003e0a900069
:104b84006123b90014002000050020000602420041
:104b940087824a004600200007002000860f52004a
:104ba400878f5a001d003e00046001000400370096
:104bb400060037000a0037000e00370012003700e5
:104bc40044002000040f78001400370084072100fb
:104bd4000a000900341f78006e01b1000f0037008d
:104be400e40821000a000900341f78006e01b100b6
:104bf4000a003700440a21000a000900341f780023
:104c04006e01b10005003700a40b21000a00090061
:104c1400341f78006e01b100000000000a00090092
:104c24003e1878006001b1006e01b1000080fa0006
:104c3400000006000000fa000002eb003482880045
:104c44007b000700b4c4b300044078000080fa007d
:104c5400000006000000fa000002eb000483880054
:104c64000002eb001483880024838000e00f5200cc
:104c74000600320034838000e00f5200030032004b
:104c840044838000e00f520002003a009440a900df
:104c9400010037009440a80054838000e00f5200c4
:104ca40002003a009bc0a900010037009bc0a80085
:104cb400b4c4b300044078000080fa000000060089
:104cc4001800fa00881f7800000478004ee297006c
:104cd400244798004ee297000402fb00450620009a
:104ce400850f52002500320045062000850f520032
:104cf40007003c00a5022000850f52000b00320083
:104d040015062000850f52003a003200400037009b
:104d1400e5062000850f52002800320065072000b8
:104d2400850f52002c00320039003700a43e820067
:104d3400e20f520004003e00a43e82000402e80098
:104d4400a43e8a003200370094028000040f7800e9
:104d5400ff3ffc00140280000450a0000460a00087
:104d64000470a000140288001e02780094028800d7
:104d7400000088000000fe00250037000e82e800d5
:104d84000402e800c2002000211021000400780081
:104d940062f2070004c2b300644f98000e82e80078
:104da4000402e8006c02420092002000e11021009d
:104db4000400780059f20700150037000e82e8005d
:104dc4000402e8005200200081122100040078004f
:104dd40052f207000e0037000e82e8000402e800d9
:104de40062002000d1122100040078004bf2070079
:104df400070037000e82e8000402e80012012000d8
:104e0400711121000400780044f207000000000042
:104e14006202470014000900345c78005801b100b4
:104e2400080078004f0478000080fa0000000600b3
:104e34000000fa009440a9005482800004427800e3
:104e4400674262000482fb00670262004822dd00c0
:104e540026058000f58f2f0085026300050272008d
:104e6400240588008440a9009440a80094c0a900a7
:104e74004482800004427800674262000482fb009e
:104e8400670262004822dd0036058000f58f2f009e
:104e940085026300050272003405880084c0a900fd
:104ea40094c0a8009bc0a9008482800004427800ba
:104eb400674262000482fb00670262004822dd0050
:104ec40016068000f58f2f0085026300050272002c
:104ed400140688008bc0a9009bc0a8000080fa00bb
:104ee400000006000000fa00e4012000343a8800c3
:104ef400243a80000460a1000470a100243a8800d0
:104f0400253a800004fe2f0004826200243a8800bf
:104f140040a7a9003600200084072000a50920002e
:104f240037742000844b7800854b7800864b7800da
:104f3400160020006404200075052000277420005a
:104f4400844b7800854b7800864b78000000000085
:104f5400153a8000040027008482620004002300c4
:104f6400848f5200faff3a0000000000153a8000d6
:104f74000402200004826200e00f5200fbff3200b2
:104f84000080fa00000006000a00fa0004802000f5
:104f9400040f78000002eb001407980004002800b6
:104fa40024079800b4cb2000340798002400200084
:104fb400440798004e029000be0190002e0190001c
:104fc4009e0090001e00780039ef0700ce21a90052
:104fd400ce01a900ce61a900ce41a90040f02f0066
:104fe40044ef07000041eb00018020001000200086
:104ff40035ef07000041eb00018020002000200075
:1050040031ef070070ff2f0005ef07000080fa0062
:10501400000006000000fa00e1a1a800040f8000cf
:105024000480a0000490a00004a0a000040f880045
:10503400e0e1a800e0c1a900e041a900e2e1a80084
:10504400140f80000440a1000450a0000460a000dc
:10505400140f88000082eb00340f88000002eb007c
:10506400240f88000080fa00000006000000fa0007
:10507400f1a1a800840f80000480a0000490a00087
:1050840004a0a000840f8800f0e1a800f0c1a900ea
:10509400f041a900f2e1a800940f80000440a100af
:1050a4000450a0000460a000940f88000082eb006c
:1050b400b40f88000002eb00a40f88000080fa00ff
:1050c400000006000000fa00140a80000400a10099
:1050d4000410a1000420a100140a880042e1a800e1
:1050e400140a80000450a0000460a100140a88007f
:1050f400140a80000400a0000410a1000420a100f0
:10510400140a8800240580000440a0000450a00074
:105114000460a000240588008420a9009420a8002d
:105124000080fa00000006000000fa00340a800043
:105134000400a1000410a1000420a100340a880086
:1051440046e1a800340a80000450a0000460a100d5
:10515400340a8800340a80000400a0000410a1006e
:105164000420a100340a8800340580000440a00013
:105174000450a0000460a0003405880084a0a900a5
:1051840094a0a8000080fa00000006000000fa00c5
:1051940005e1a90005a1a80004c1a9002408800014
:1051a4000440a1000450a100240888000441a9007f
:1051b4000421a9000002eb000408880004c42900ab
:1051c400140888002405800004c0a00004d0a100b5
:1051d40004e0a000240588008460a9009460a8006d
:1051e40005e1a8000080fa00000006000000fa00b3
:1051f40011e1a90011a1a80010c1a9008408800030
:105204000440a1000450a100840888001021a900d2
:105214000002eb00340888000082eb006408880078
:105224003405800004c0a00004d0a00004e0a00065
:105234003405880084e0a90094e0a80011e1a800e6
:105244000080fa00000006000000fa002002a90015
:10525400041180000410a1000420a100041188009e
:1052640020a2a9002062a900440120004411880062
:1052740023a2a90023e2a9009580a90014118000ab
:105284000460a1000470a1001411880021e2a800a8
:105294002342a8009c20a9004405800004c0a1006a
:1052a40004d0a00004e0a000440588008560a900a3
:1052b4009560a8000080fa00000006000000fa00d3
:1052c400f4072000541c8800d4002000141c88001b
:1052d400041c80000440a1000450a000041c8800a9
:1052e400041c80000400a1000410a100041c880018
:1052f40004602000241c880004302000441c880022
:105304008480a900340580000400a1000410a000da
:105314000420a000340588009480a80081e3a8003c
:105324000080fa00000006000000fa008de3a900e6
:105334008dc3a8008da3a8008d83a9008d63a90047
:10534400641c80000440a1000450a100641c880077
:10535400641c80000400a0000410a100641c8800e8
:10536400740c2000b41c8800c4002000741c880045
:1053740004702000841c880044222000a41c88009f
:10538400540580000480a0000490a10004a0a100a2
:105394005405880085c0a90095c0a8000080fa00c3
:1053a400000006000000fa00041980000480a10037
:1053b4000490a10004198800041980000450a0007e
:1053c4000460a0000470a100041988002043a80010
:1053d4002143a90021a3a8002063a8002343a90016
:1053e400141980000480a0000490a10014198800fe
:1053f4002223a9002203a90025e3a900251980007e
:1054040004f021000502720024198800f4c3b300db
:105414000400780024e3b7002183a9001419800054
:105424000420a0000430a1000440a1000450a10005
:1054340014198800941980000400a1000410a0002d
:105444000420a00094198800341980000490a1005d
:1054540004a0a100341988002703a900341980008e
:105464000410a1000420a100341988002603a90017
:1054740029e3a90045198000f40f2e00048262007c
:105484004419880028e3a9004519800004fe2f0070
:10549400048262000400a000441988000082eb002a
:1054a400641988002c03a9002c23a90085a0a90055
:1054b40095a0a90021e3a8000080fa0000000600de
:1054c4000000fa006022b80074408800854088001b
:1054d4006022b80094408800a54088006022b8008b
:1054e400b4408800c54088006022b800d4408800d9
:1054f400e54088000080fa00000006000000fa0081
:10550400b4408000c54080000400be0017f00700ce
:105514000002be001473880025738800b440800024
:10552400c54080000400be0052ee07000002be0029
:10553400d43e8a00e53e8a000080fa00000006009e
:105544007e0dfa00889fbe0004088000040f7800d6
:1055540024ff20001404be00847b8000cfa2de0060
:105564000400be00bbee07000002be000401be0042
:105574000800be0060ef07000002be001407980098
:105584002507980024ff200024049000b404900010
:10559400947b8000cfa2de000400be00adee0700c5
:1055a4000002be000401be000800be0052ef070066
:1055b4000002be0034079800450798001e019000c1
:1055c400ae0190003e009000ce009000cced0700ac
:1055d4000002be0054079800650798001e01900061
:1055e400ae0190003e009000ce009000c3ed070095
:1055f4000002be0074079800050f98000002eb003b
:10560400847b88000002eb00947b88007e0290007b
:105614008e0a90000403be0007f0a100847c800081
:10562400957c800018c0b3000401be000600be00d3
:1056340063ee070000027800e00f5200010034001e
:105644000044eb00e04f54002700320024662000a1
:10565400040347006022b8004403980055039800ef
:1056640024662000040247003e039000ce0390000d
:10567400660298007702980024662000040247001e
:1056840064039000f4039000d43e8200e53e82005f
:105694000401be000600be0017ef07000002be00b2
:1056a4002666200006034700048bbe002466200003
:1056b4000402470064039000f40390001473800014
:1056c400257380000401be000600be000aef070037
:1056d4000002be002666200006034700240398004b
:1056e40035039800b30037005e029000ee0290008c
:1056f4000403be0007f0a100847c8000957c800038
:1057040018c0b3000401be000600be002cee070062
:1057140000027800e00f5200010034000044eb0066
:10572400e04f540039003200e47b8000f57b8000b8
:105734000401be007e0090008e089000cfed0700ab
:105744000002be00266620000603470044039800ba
:1057540055039800b6408000c740800024662000ae
:1057640004024700d4029000440290000401be00e9
:105774000600be0062ed07000002be00b2fd20007c
:10578400930c24000400be0037ee07000002be00a4
:10579400b4408800c5408800b4408000c540800003
:1057a4000400be0071ef07000002be0014738800fd
:1057b40025738800b4408000c54080000400be000a
:1057c400aced07000002be00d43e8a00e53e8a002c
:1057d40024662000040347006022b800048bbe0046
:1057e40024662000040347006022b80024039800c4
:1057f4003503980024662000040347006022b800a3
:1058040064039800750398006a003700e47b800005
:10581400f57b80000401be007e0090008e0890009d
:1058240096ed07000002be0026662000060347002e
:105834004403980055039800b6408000c740800098
:105844002466200004024700d40290004402900021
:105854000401be000600be0029ed07000002be00e0
:10586400b2fd2000930c24000400be00feed0700ee
:105874000002be00b4408800c5408800b4408000e7
:10588400c54080000400be007aed07000002be009f
:10589400140f9800250f9800b4408000c540800084
:1058a4000400be0031ef07000002be00340f980070
:1058b400450f980002002000030024005e009000c1
:1058c400ee0090006ded07000002be002666200089
:1058d4000603470064039800750398007e01900056
:1058e4008e0990005e009000ee00900063ed0700ca
:1058f4000002be000403be00d47f8000e57f800068
:105904000401be000600be007bee07000002be00dc
:10591400540f9800650f980014738000257380005d
:105924000401be003e089000ce089000f3ec07008e
:105934000002be005e099000ee0990000400be0063
:105944006dee07000002be00266620000603470035
:10595400048bbe00d43e8200e53e82001e09900006
:10596400ae0990000400be00e4ec07000002be0093
:105974005e099000ee0990000400be005eee070090
:105984000002be0026662000060347002403980098
:10599400350398003e0a9000ce0a900014738800e4
:1059a400257388001e0b9000ae0b9000d63e8a0033
:1059b400e73e8a0004e6200014427800e04f5200db
:1059c4003d003200f4728000c422dd00e481200036
:1059d4000482420025662000850247000700090072
:1059e400351a78000401b1000501b100f472800099
:1059f4000402e800f4728800f57280004406200076
:105a0400848f52002c003a00e47320000402470003
:105a1400e7812000053280001f030900371a78004f
:105a2400050252007e024700e5732000850247000c
:105a340085017800d2c4b300b1c0b300040078007b
:105a440059f8070024672000040247004564200039
:105a540085874700c59b2f00858247007e0347004a
:105a64002732800021030900b61a78008782520089
:105a740004007800caf70700c49b2f0084874700fe
:105a84002467200084024700cf0cb00044f32f00a9
:105a94000f02420065000900351a7800c40cb100f9
:105aa400c50cb10000c4b300de000700cf0cb10088
:105ab4000002eb00f472880024662000840347008f
