:020000040000fa
:080000000002040000000000f2
:020000040000fa
:10040000ef8120000e5f24000e0188000000000034
:100410000c000700407d21000100200011000700b2
:10042000000020000000e000020032000000020096
:10043000000000002a180200000000000040da005e
:100440000000fe004440a900000020000000e00081
:100450000300320000002000a00188004440a800f2
:100460000000060091018800800078000000eb0089
:1004700015003700e280400032a0b4009101ba00bc
:10048000e280400032a0b4009102ba00e280400055
:1004900032a0b4000002eb00472bde00f507b200eb
:1004a000602ce10004003a000059eb008301e900f0
:1004b000fdff3e00040037006128e100010032002a
:1004c0000082eb00040007001101ba000200e00006
:1004d000e8ff3a00000006003159ba008301e90044
:1004e0000c0032002159ba008301e90008003200f3
:1004f0000400e00003003a00e280400032a0b400b3
:10050000f5ff370011d9ba008301e900faff3a007c
:100510008100e800e180400032a0b4000000060045
:100520003216040000000000541604000000000011
:10053000161604000000000000a0fe003400f800c1
:10054000881f780008002000a80188004f04780068
:100550000400fa00000a8000000f7800000a800002
:10056000100798008420a900714080006008800076
:100570000088b900000078009e0040001e00900036
:10058000008050000100200090408800a1408800b9
:100590000000eb0070408800010f80000080200008
:1005a00000806000e00f50000200320010002000c8
:1005b000010037000080eb00d04088000080fa0086
:1005c0003400f9000080fe000040060000a0fe009c
:1005d0003400f800881f780008002000a801880077
:1005e0004f0478000400fa00200a8000000f780011
:1005f000200a80001007980084a0a9008140800094
:10060000600880000088b900000078009e0040006b
:100610001e0090000080500001002000b0408800c3
:10062000c14088000000eb0080408800810f8000fe
:100630000080200000806000e00f500002003200c7
:100640000080eb000100370010002000e04088002f
:100650000080fa003400f9000080fe00004006002f
:100660003600f800809fbe00821f78003400f8003a
:1006700000002000a00188000000fa008460a900aa
:100680008440a80061408000401f200000017800e5
:10069000110009008280d8008000fd00e00f5000aa
:1006a0000f003a00201680004400de006140600028
:1006b0000004a200614060000080fb006100600057
:1006c0004400dd0022168000f1fe2f008100610051
:1006d00000807000201688000000eb006040880059
:1006e000604080000000e800604088000080fa0060
:1006f0003400f9004f0178004f00be003600f900c9
:100700000040060000a0fe003400f800881f7800ba
:1007100008002000a80188004f0478000000fa00bb
:1007200084e0a90090408000a1408000e00f5000cc
:10073000e08f580003003200704080000000e800a5
:1007400070408800b0408000c1408000e00f500041
:10075000e08f580003003200804080000000e80075
:10076000804088000080fa003400f9000080fe001c
:10077000004006003600f800809fbe00829fbe0049
:10078000849fbe00869fbe003400f8000000200059
:10079000a00188000000fa008440a900d5030700ea
:1007a00060040700a20407000080fa003400f9008a
:1007b0004f03be004f02be004f01be004f00be00ff
:1007c0003600f900004006003600f800809fbe00a9
:1007d000829fbe00849fbe00869fbe003400f8004a
:1007e00000002000a00188000000fa0084c0a900d9
:1007f0000f0507000080fa003400f9004f03be0027
:100800004f02be004f01be004f00be003600f9008f
:10081000004006000000fa00001180006600600041
:10082000e60f500002003a0030118000030037004c
:1008300031118000f00f2000008060000080fa007d
:10084000000006003600f800809fbe00829fbe00b8
:10085000849fbe00869fbe003400f8000000200088
:10086000a00188000000fa008560a9001011800036
:1008700061006000e00f500007003200e5ff070054
:1008800000407800e2080700e00f50000f0032003f
:1008900084c0a8000d0037001011800064006000c3
:1008a000e00f5000020032000080eb002709070033
:1008b0001011800062006000e00f50000300320061
:1008c0002222a900e0ff2f00200907000080fa0083
:1008d0003400f9004f03be004f02be004f01be00be
:1008e0004f00be003600f900004006003600f80058
:1008f000809fbe00829fbe00849fbe00869fbe0078
:100900003400f80000002000a00188000000fa0078
:100910008480a9008a0407000080fa003400f900ee
:100920004f03be004f02be004f01be004f00be008d
:100930003600f900004006003400f800881f7800f7
:1009400008002000a80188004f0478000000fa0089
:1009500085c0a9000080fa003400f90000400600bc
:100960000000fa008020a900ffff37000000fa0015
:100970008060a900ffff37000000fa008040a90056
:10098000ffff37000000fa008080a900ffff37005a
:100990000000fa0080a0a900ffff37000000fa0065
:1009a0008020a900ffff37000000fa008060a90046
:1009b000ffff37000000fa008040a900ffff37006a
:1009c0000000fa008080a900ffff37000000fa0055
:1009d00080a0a900ffff37000000fa00ffff3700ea
:1009e000881f78008a1f78004400f800080f200054
:1009f000280288000004900010059000a0009000dc
:100a000030019000c00190000300ca000280ca00bb
:100a10000030cb001a00cd004604c3000100ca001c
:100a20004604c0001e04c0000605c0000100cd0041
:100a300021009800050d7800eaba97000525780096
:100a40004400f9004f0578004f04780000000600cc
:100a5000801f78004000b0000008eb004f007800d5
:100a6000801f7800100090000018eb000018eb00c9
:100a70000008eb004f007800000006004400f8007a
:100a8000020f200022028800910078003000ca0086
:100a90003080ca000000cb002080ca000000cb00dc
:100aa0003100cd004000ca000000cb000000cb00a8
:100ab0000010cb003100cd001180cc004400f900c3
:100ac000000006008b20a9008be0a90067016000f0
:100ad0004411dd0003068000f1f82f0081806100e1
:100ae0008280700001068800000178000207b200d1
:100af0004811dd0013068000f1ff280081806100ad
:100b00008280700011068800680160004311de00d9
:100b1000610161004911dd00d10480000190a10054
:100b200082807000d10488000008b2004700de0017
:100b3000610060004f00dd00d104800001f0a100e1
:100b400080807000d104880000000600200e88001c
:100b5000310e8800430e8800540e8800020e880073
:100b60000000060061016100530e80000300a10037
:100b700082817100530e88000000e90000004000ef
:100b8000621d20000131780000000600600e880020
:100b90000000060003f0a200889fbe008a9fbe00ee
:100ba0008c1f7800fe000700050133006450e1004f
:100bb0004f0032006420e1005200320003826c00da
:100bc00007003b000905d0000306d000820f540047
:100bd0000c065d0002003900020032008901780035
:100be000030678008582550004003d000003fd00e7
:100bf0008103fd008502ea008b854200840f7200ac
:100c000002003b0060001000e08018006011b80096
:100c10000005eb007a28e1000a00390006007800a0
:100c2000c75ddd00f707b200878075002d00370033
:100c3000828171000a017800610560008180d10025
:100c40000080d3008502e900f9ff3b000604400064
:100c50008784480002003b0060041400e0841c000c
:100c60000988a300070032008a8171008281710027
:100c7000610164008904d1000884d3008b05e80079
:100c8000170037000978a30013003a000b00e000ba
:100c9000130034008b05e9000804440089844c00eb
:100ca0000a4474000978a3000d003a000b00e0002c
:100cb000070034008b05e9000804440089844c00d7
:100cc00001003a000b0020000978a300f7ff320072
:100cd0000001eb0002003700828171000a017800f8
:100ce000740007000cf0a70001f0a000bd00370061
:100cf0006420e10002003a00838f6c00bd003300e5
:100d00000801be000200be00b6003700889fbe008a
:100d10008a9fbe008c1f7800a1000700a800330046
:100d200003866c006450e1002e0032006420e10074
:100d3000330032006150e1002f0032006120e100f9
:100d40003100320085855500eb07b0000900200016
:100d500008042000050037000804440089844c0082
:100d60000a0031000603430087834b000001530053
:100d700081815b00f8ff33000203be000800a00081
:100d80000804440089844c00f6ff3900c639dd00b0
:100d90008301730001003200130020008904d10098
:100da0000884d3000998a300050032000800a700ba
:100db0000300a0008904d1000884d3008b05e8005b
:100dc0008904d1000884d3000001eb000281d20025
:100dd0003800070001f0a1000cf0a70001f0a0000e
:100de000800037006420e100820032000801be006c
:100df0000200be00f7ff37006120e1007d003200f5
:100e00006000b800f3ff37000000200001f8270061
:100e1000f0ff370014002000ad0037000001be00d5
:100e20004a0007000470a70003f0a1006509b100a3
:100e3000160032000d0035006828e100060035007c
:100e4000f0ff2f00f1ff27000300e00013003b003c
:100e500001002800000005000000400081804800db
:100e60008502e900fcff3a0008003700f88f4200d5
:100e700002003c008000eb00000005008100d10072
:100e80000080d3008502e800fcff3a000300e00088
:100e900002003b0060001000e08018000000060027
:100ea0004f89de0082017800a40037006011b8008d
:100eb000b200370081002000618055000b003d002a
:100ec0000b00200061fe2f000100e1001d00340036
:100ed00082817100610164008904d1000884d3001b
:100ee0000000e800faff3a00710020006100640091
:100ef0000300700002006000090032006104440039
:100f0000e0844c000988a500050032008b05e8004c
:100f10006808e10002003a008904d1000884d30087
:100f2000f20f20000258e10005003d00c75ddd0022
:100f3000f907b200898075000800780000000600fb
:100f40000bf827008b00780000000500c70ade00c0
:100f5000f107b200f50fb20008003200e1cf420005
:100f6000020032000170a00024000500810f700013
:100f7000010032000408050044000500810f7000e4
:100f800002003a00140005008502e900000040005c
:100f900081c04800fcff3b000170a0002400050058
:100fa0000004be00e9ff07000003be000405be0008
:100fb0000200be00e5ff0700844f75000000060038
:100fc0000200be006450e100050036006420e1002c
:100fd000020036000968a30001003a000800be00c4
:100fe0000160a0004f0678004f05be004f04be0010
:100ff00000000600f0ff2f00f1ff2700f9ff370087
:10100000889fbe008a9fbe008c1f7800e4ff070007
:10101000ebff330003866c006450e10024003200d3
:101020006420e100270032006150e100220032001c
:101030006120e100210032008b854200eb07b10006
:101040000134b800003ab8000804420089844a001c
:10105000013ab8000030b8008880400009014a0019
:101060000400330000004000818048000201490074
:101070008b05e900c909dd00830170000100320021
:1010800013002000c814de004814dd004709de000c
:101090001200b200c808de000884700085ff070057
:1010a00001f0a1000cf0a70001f0a000cdff370077
:1010b0006120e100cfff32000801be000200be0047
:1010c000f7ff37006150e100fcff3a00c9ff37002d
:1010d000889fbe008a9fbe00841f7800b0ff070073
:1010e0004f00780011003300f0ff2f00838f6c0059
:1010f00006003b00040565000a00a7000800370051
:1011000009f0a6001000200008003700820f5400ec
:10111000838f5c00030039001000200001003e00b6
:101120000000200009f0a7000000ea004f05be0003
:101130004f04be000000e00000000600881f780099
:10114000030478000300e00007003d006000100089
:10115000e080180060011900e081190002003b00e6
:1011600001f02d00030037000400070008f0a7007d
:1011700001f0a0004f04780000000600889fbe0028
:101180008a9fbe0000827000040271000482710018
:10119000260032000004be000200be006011b8004c
:1011a0006b092000950220000182cf000a0039005f
:1011b0000541b1000082cf00070039000541b100b0
:1011c0000982cf00040039000541b1000882cf0038
:1011d000010039000541b100054252001200320001
:1011e0000a003b0082817100610164008100d1002e
:1011f0000080d3008984d3000884d3008b05e800e5
:101200000442e800f7ff3a000700370008044400f2
:1012100089844c0000004800818048008b05e9006b
:101220000442e900f9ff3a0022ff07004f05be0023
:101230004f04be0000000600800178000200370065
:10124000b1597800040178000202e900e00f510072
:08125000fbff3a00000006005c
:020000040000fa
:0200000401f009
:04000800ffff0000f6
:020000040000fa
:0200000401f009
:04000c00faff0000f7
:020000040000fa
:0200000401f009
:040010007dff000070
:020000040000fa
:0200000401f009
:040014007fff00006a
:020000040000fa
:0200000401f009
:04001c00dfff000002
:020000040000fa
:10000800ec040000b0040000b6040000bc040000ca
:10001800c2040000c8040000ec040000ec04000066
:10002800ec0400009c020000ba030000300300004a
:1000380076040000e6020000e403000082030000ea
:10004800ec040000ec040000ec04000022040000b2
:10005800ec040000ec0400009c040000ec04000028
:10006800ec040000ec040000ec040000ec040000c8
:10007800ec040000ec040000ec040000ec040000b8
:10008800ec040000ec040000ec040000ec040000a8
:10009800ec040000ec040000ec040000ec04000098
:1000a800ec040000ec040000ec040000ec04000088
:1000b800ec040000ec040000ec040000ec04000078
:1000c800ec040000ec040000ec040000ec04000068
:1000d800ec040000ec040000ec040000ec04000058
:1000e800ec040000ec040000ec040000ec04000048
:1000f800ec040000ec040000ec040000ec04000038
:10010800ec040000ec040000ec040000ec04000027
:10011800ec040000ec040000ec040000ec04000017
:10012800ec040000ec040000ec040000ec04000007
:10013800ec040000ec040000ec040000ec040000f7
:10014800ec040000ec040000ec040000ec040000e7
:10015800ec040000ec040000ec040000ec040000d7
:10016800ec040000ec040000ec040000ec040000c7
:10017800ec040000ec040000ec040000ec040000b7
:10018800ec040000ec040000ec040000ec040000a7
:10019800ec040000ec040000ec040000ec04000097
:1001a800ec040000ec040000ec040000ec04000087
:1001b800ec040000ec040000ec040000ec04000077
:1001c800ec040000ec040000ec040000ec04000067
:1001d800ec040000ec040000ec040000ec04000057
:1001e800ec040000ec040000ec040000ec04000047
:0801f800ec040000ec0400001f
:020000040000fa
:10020800ec040000ce040000d4040000da0400006e
:10021800e0040000e6040000ec040000ec04000028
:10022800ec0400009c020000ba0300003003000048
:1002380076040000e6020000e403000082030000e8
:10024800ec040000ec040000ec04000022040000b0
:10025800ec040000ec0400009c040000ec04000026
:10026800ec040000ec040000ec040000ec040000c6
:10027800ec040000ec040000ec040000ec040000b6
:10028800ec040000ec040000ec040000ec040000a6
:10029800ec040000ec040000ec040000ec04000096
:1002a800ec040000ec040000ec040000ec04000086
:1002b800ec040000ec040000ec040000ec04000076
:1002c800ec040000ec040000ec040000ec04000066
:1002d800ec040000ec040000ec040000ec04000056
:1002e800ec040000ec040000ec040000ec04000046
:1002f800ec040000ec040000ec040000ec04000036
:10030800ec040000ec040000ec040000ec04000025
:10031800ec040000ec040000ec040000ec04000015
:10032800ec040000ec040000ec040000ec04000005
:10033800ec040000ec040000ec040000ec040000f5
:10034800ec040000ec040000ec040000ec040000e5
:10035800ec040000ec040000ec040000ec040000d5
:10036800ec040000ec040000ec040000ec040000c5
:10037800ec040000ec040000ec040000ec040000b5
:10038800ec040000ec040000ec040000ec040000a5
:10039800ec040000ec040000ec040000ec04000095
:1003a800ec040000ec040000ec040000ec04000085
:1003b800ec040000ec040000ec040000ec04000075
:1003c800ec040000ec040000ec040000ec04000065
:1003d800ec040000ec040000ec040000ec04000055
:1003e800ec040000ec040000ec040000ec04000045
:0803f800ec040000ec0400001d
:020000040000fa
:101258000000fa00a0702d0031d22300603b8a0004
:10126800713b8a00a0702d0031d22300a03b8a0078
:10127800b13b8a00d0cc2c00c1e42300803b8a001b
:10128800913b8a00a0d8200051bd2400c03b8a00b1
:10129800d13b8a00a0d8200051bd2400a03b8a0081
:1012a800b13b8a00c27724006000b8000089be0004
:1012b800c27724006000b80020019800310198002e
:1012c800427824006000b8000089be0042782400fb
:1012d8006000b8002001980031019800417a24008c
:1012e8000040eb00804878000080fa00000006000b
:1012f8000000fa00a099290091f12300603c8a00bf
:10130800713c8a003033230031f32300803c8a008b
:10131800913c8a00d0cc2c00c1dc2300a03c8a0080
:10132800b13c8a00a099290091f12300c03c8a00b1
:10133800d13c8a003033230031f32300e03c8a009b
:10134800f13c8a00d0cc2c00c1dc2300003d8a008f
:10135800113d8a000080fa00000006000000fa0033
:10136800881f7800603c8200713c820018c0b3007e
:101378006011b800a5fe0700e00f5000010035001d
:101388000044eb00e04f54000b003200603c820048
:10139800713c8200020020000370240016ff070041
:1013a8000200200003f02300f8fd070099fe070063
:1013b800000078000a003700603c8200713c82001f
:1013c80002e02f00f36f24000bff0700020020004b
:1013d80003f02300eefd07008efe070000007800f2
:1013e800903a8a00803c8200913c820018c0b30089
:1013f8006011b80085fe0700e00f500001003500bd
:101408000044eb00e04f54000b003200803c8200a7
:10141800913c82000200200003702400f6fe0700c1
:101428000200200003f02300d8fd070079fe070022
:10143800000078000a003700803c8200913c82005e
:1014480002e02f00f36f2400ebfe070002002000eb
:1014580003f02300cefd07006efe070000007800b1
:10146800a03a8a00603c8200713c820018c0b30038
:101478006011b80065fe0700e00f5000010035005c
:101488000044eb00e04f54000b003200603c820047
:10149800713c82000200200003702400d6fe070081
:1014a8000200200003f02300b8fd070059fe0700e2
:1014b800000078000a003700603c8200713c82001e
:1014c80002e02f00f36f2400cbfe0700020020008b
:1014d80003f02300aefd07004efe07000000780071
:1014e800b03a8a00690007004f0478000080fa00cb
:1014f800000006000000fa00881f7800c03c820047
:10150800d13c820018c0b3006011b8003ffe07004c
:10151800e00f5000010035000044eb00e04f54009c
:101528000b003200c03c8200d13c82000200200047
:1015380003702400b0fe07000200200003f023001f
:1015480092fd070033fe0700000078000a0037000c
:10155800c03c8200d13c820002e02f00f36f2400df
:10156800a5fe07000200200003f0230088fd070005
:1015780028fe070000007800103b8a00e03c82004b
:10158800f13c820018c0b3006011b8001ffe0700cc
:10159800e00f5000010035000044eb00e04f54001c
:1015a8000b003200e03c8200f13c82000200200087
:1015b8000370240090fe07000200200003f02300bf
:1015c80072fd070013fe0700000078000a003700cc
:1015d800e03c8200f13c820002e02f00f36f24001f
:1015e80085fe07000200200003f0230068fd0700c5
:1015f80008fe070000007800203b8a00003d8200ba
:10160800113d820018c0b3006011b800fffd07004b
:10161800e00f5000010035000044eb00e04f54009b
:101628000b003200003d8200113d820002002000c4
:101638000370240070fe07000200200003f023005e
:1016480052fd0700f3fd0700000078000a0037008c
:10165800003d8200113d820002e02f00f36f24005c
:1016680065fe07000200200003f0230048fd070084
:10167800e8fd070000007800303b8a000f000700f3
:101688004f0478000080fa00000006000000fa000d
:1016980000802000403a8a00c0732400503a8a0033
:1016a80080742400e8fc070081742400207524005d
:1016b800f0fc07000080fa00000006000000fa00b5
:1016c80060802000c03a8a0020742400d03a8a0042
:1016d80080752400dcfc0700817524002076240036
:1016e800e4fc07000080fa00000006000000fa0091
:1016f800889fbe008a9fbe00407a24001040780070
:101708000080fb00610060004200dd00621680007e
:10171800b1ff2f0081006100008070006016880012
:10172800407a2400104078000080fb0061006000cf
:101738004300dd006216800071ff2f008100610008
:101748000080700060168800483b8200593b820088
:10175800403f8200cf80de00cffd07000001be00c1
:101768000800be0024fe07000004be006a3b820099
:101778007b3b8200703f8200cf80de00c6fd070001
:101788000001be000a00be001bfe07000001be00eb
:101798000800be00fefc0700020020000300240031
:1017a80058fd0700427824000089be00483b8200ab
:1017b800593b8200403f8200cf80de00b6fd070023
:1017c8000001be000800be000bfe07000004be00ba
:1017d8006a3b82007b3b8200703f8200cf80de0044
:1017e800adfd07000001be000a00be0002fe0700b2
:1017f8000001be000800be00e4fc07000002be00b5
:10180800803b8200913b82000001be000400be00c4
:101818003cfd07004278240020019800310198001f
:10182800403b8200513b82000001be0000002000c6
:1018380001f8230033fd07000004be00c077240030
:101848001005be00843b8200953b8200c0772400cf
:10185800b0009000200090000001be000400be000f
:10186800e5fd0700020020000300240025fd070015
:101878000001be000a00be00c5fc07000001be0052
:101888000800be00dcfd070062fd070000007800cc
:10189800a03f8a00603b8200713b82000001be00cd
:1018a8000000200001f8230016fd07000004be0018
:1018b800c07724001005be00843b8200953b82005f
:1018c800c0772400b0009000200090000001be0006
:1018d8000400be00c8fd0700020020000300240029
:1018e80008fd07000001be000a00be00a8fc0700b2
:1018f8000001be000800be00bffd070045fd07004f
:1019080000007800903f8a000000eb004f05be0001
:101918004f04be000080fa00000006000800fa002c
:10192800889fbe008a9fbe0000088000000f7800d4
:1019380090408000a140800010079800210798007f
:101948006000b80090408800a1408800d040800026
:10195800300798000000eb00d04088000000eb0042
:10196800703f8a00313f8200200f800000804000d5
:10197800303f8a000000eb00200f88003e009000f6
:10198800e00f5000120032003e009000cf80de00d1
:1019980041fd07000004be00ca3b8200db3b820019
:1019a8001e009000ae0090003efd07000001be0042
:1019b8000a00be00d3fc07000001be000800be00fc
:1019c8008dfd070013fd070000007800703f8a00b6
:1019d800903f8200803a8a00703f8200703a8a0005
:1019e80080742400fcfb0700603a8200c480de009b
:1019f8001080200000804000803f8a00803f8200e5
:101a08000041eb00800078001000200053fc070024
:101a1800000880001e0050004f05be004f04be00a5
:101a28000080fa00000006000800fa00889fbe0047
:101a38008a9fbe0000088000000f7800b040800038
:101a4800c140800010079800210798006000b80086
:101a5800b0408800c1408800e0408000300798000e
:101a68000000eb00e04088000000eb00403f8a00e7
:101a7800613f8200a00f800000804000603f8a0024
:101a88000000eb00a00f88003e009000e00f50001f
:101a9800120032003e009000cf80de00fefc0700fe
:101aa8000004be00aa3b8200bb3b82001e009000df
:101ab800ae009000fbfc07000001be000a00be005b
:101ac80090fc07000001be000800be004afd0700a8
:101ad800d0fc070000007800403f8a00a03f820049
:101ae8000000ea00003b8a00403f8200f03a8a008a
:101af80080752400b8fb0700e03a8200c480de004d
:101b08001080200000804000503f8a00503f820033
:101b18000041eb0080007800200020000ffc070047
:101b2800000880001e0050004f05be004f04be0094
:101b38000080fa00000006000a00fa000000eb002e
:101b4800000f78006000b80010079800210798007f
:101b58006000b80030079800410798000000eb00cb
:101b6800000f78001a0037001e019000ae019000a7
:101b78001e007800800040000060240000804000c3
:101b880010007800cf80de0002004000838048000b
:101b980010079800210798003e019000ce019000a0
:101ba800010420001e8040008000400000602400e6
:101bb8000080400010007800cf80de000200400066
:101bc8008380480030079800410798001e0fe800fe
:101bd800f00320009e007800808f5000e2ff340060
:101be8001e009000ae0090004a09dd004600de00ad
:101bf80000007100c688de0000007800c03f8a003f
:101c08003e009000ce0090004a09dd004600de004c
:101c180000007100c688de0000007800b03f8a002e
:101c28000080fa0000000600c200fa000000eb0085
:101c380020079800400420000e0040000204200005
:101c4800617a24007afd07000000eb00000f78009d
:101c5800580037001e80e8000000470040c0900090
:101c6800e14f50000300360030c4b300204798000d
:101c7800050037001e80e8000080e80000004700eb
:101c8800c0c09000214798002e4090000080fb00c3
:101c98006101b900d0fb2f00f1ff2f0002004000c6
:101ca80083804800f200200003002000820f5000cb
:101cb800838f580035003e00006001000f00370098
:101cc8003400370033003700320037003100370066
:101cd800300037002f0037002e003700190037007a
:101ce8002c0037002b00370016003700290037007a
:101cf8002800370027003700120037001e80e80050
:101d0800800178001e00e8000080e800000047001d
:101d180040c09000450820008e8242004104200007
:101d28008e8040000181e800e4004700030278004b
:101d38008201780000417800050078002d00070036
:101d4800150037001e80e8000080e800000047000a
:101d5800c0c090001e00e8000080e80000004700b6
:101d680040c09000450820008e824200640347006e
:101d78000002eb008141780000417800860078007d
:101d880005007800d40007000300370000000000b9
:101d980001003700000000001e80e8000000470036
:101da80040c090000080fb000000e8001e0f4000cb
:101db8001e0fe8009e0078002e209000808f5000b3
:101dc800a4ff39000f04b00000fc2f000f004000f2
:101dd8008e0078004100b0001f000900311878001b
:101de8000004b100f80307000f04b1000080fa00f6
:101df800000006008600fa00881f780000047800ba
:101e08000127980022c798002327980034279800b4
:101e18002ec090000000fb006101b900f0fb2f000c
:101e2800f1ff2f000200400083804800520120008b
:101e380003002000820f5000838f580074003e007a
:101e48000060010015003700250037003c0037000e
:101e58006f003700630037006d0037006c003700f3
:101e68006b0037006a0037006900370068003700e8
:101e780067003700500037006500370064003700fe
:101e88003700370062003700610037006000370014
:101e98005f0037005e0037003c003700c078240040
:101ea800000f78000e80e8001e037800c5002000af
:101eb8003e229000ae2190002ec190008e2090000e
:101ec8006000070025fd07000e0078002000b00024
:101ed8001e000900301c7800e803b10055003700e7
:101ee80080792400000f7800800420000e00400054
:101ef8001e037800c50020003e229000ae2190000d
:101f08002ec190008e2090004e0007008e007800b1
:101f18002100b0000e0078008004b0001e00090007
:101f2800b01878000dfd07008e0078002100b00081
:101f38001e000900311c7800e803b1003d0037009d
:101f48002ec090000002eb00e3c4b300004178000b
:101f58008e209000080078005f00070035003700e9
:101f680080762400000f78001e03780045012000c9
:101f78003e229000ae2190002ec190008e2090004d
:101f8800080078002f0007002a003700c0772400d7
:101f9800000f78001e037800850020003e22900084
:101fa800ae2190002ec190008e209000080078008d
:101fb800240007001f00370040782400000f780035
:101fc8001e037800850020003e229000ae2190007c
:101fd8002ec190008e20900008007800190007009c
:101fe80014003700407a2400000f78001e037800a0
:101ff800250020003e229000ae2190002ec19000c6
:102008008e209000080078000e00070009003700b5
:1020180060ff2f004b0307002ec090000002eb006a
:10202800e3c4b300004178008e20900008007800d7
:1020380029000700080078004f0478000080fa00a3
:10204800000006000c00fa00881f780000047800e1
:10205800010f78002247980023079800340798005a
:1020680045079800560798005e009000e00f500062
:102078000e003200ae0090003e00900080804000cc
:102088005e0090004e01900069fc07002e40900011
:102098000002eb00b3c4b300004178009e00780052
:1020a800080078000c000700070037002e40900059
:1020b8000002eb00e3c4b300004178009e00780002
:1020c8000800780004000700080078004f04780032
:1020d8000080fa00000006000600fa00881f780059
:1020e80000047800010f78002247980033479800d1
:1020f800240798003e4090000080fb006101b90071
:10210800d0fb2f00f1ff2f00020040008380480021
:10211800f200200003002000820f5000838f580037
:102128001d003e00006001000f0037001a00370054
:10213800190037001800370017003700160037005d
:1021480015003700140037000d0037001200370063
:10215800110037000a0037000f0037000e00370063
:102168000d00370000003700ae0190002e419000ae
:102178009e00780008007800130007000e00370062
:10218800be4190002e4190009e0078000800780023
:10219800aa0007000800370070ff2f00e9020700b7
:1021a8000002eb00e3c4b3002e4190009e007800cb
:1021b80008007800c8ff0700080078004f0478007e
:1021c8000080fa00000006004200fa00881f78002c
:1021d80000047800611f9800627f98000327980028
:1021e8006e7890000080fb006101b900f0fb2f00c1
:1021f800f1ff2f00020040008380480052012000b8
:1022080003002000820f5000838f58007f003e009b
:102218000060010015003700290037003d00370035
:102228007a003700650037007800370077003700fc
:1022380076003700750037007400370073003700e8
:102248007200370051003700700037006f00370008
:10225800370037006d0037006c0037006b0037001f
:102268006a003700690037003c003700c078240056
:102278008e0078001001be008288be00e480400015
:10228800640040001002be008488be00e480400064
:10229800640040001003be008688be00e480400051
:1022a800640040000e027800c30020006e799000a0
:1022b800ee18900008007800870007005b003700e0
:1022c800807924008e0078001001be008288be004c
:1022d800e4804000640040001002be008488be0014
:1022e800e4804000640040001003be008688be0001
:1022f800e4804000640040000e027800c300200023
:102308006e799000ee1890000800780072000700bf
:10231800460037000002eb00e3c4b3006e7990007a
:10232800ee189000080078006bff07003f003700a8
:102338008776240009000900371f78004e01b10094
:102348000e027800430120006e799000ee1890008c
:10235800080078006000070034003700c0772400c8
:102368003002be002003be00049fbe000697be00d8
:102378000e027800830020006e799000ee1890001d
:10238800080078005400070028003700407824002f
:102398003002be002003be00049fbe000697be00a8
:1023a8000e027800830020006e799000ee189000ed
:1023b80008007800480007001c00370060168000fd
:1023c80064006000e00f50000600320060168000d4
:1023d80068006000e00f500002003200100020008a
:1023e800010037000000eb0000407800004f780043
:1023f8000e027800230020006e799000ee189000fd
:1024080008007800340007000800370050ff2f004c
:102418004c0207000002eb00e3c4b3006e799000a1
:10242800ee189000080078002bff070008007800dd
:102438004f0478000080fa00000006004200fa000d
:10244800711f980002c7980013c79800fe189000e3
:10245800910078007e1990000101410011c0b3007d
:1024680021419800fe189000910078008100e80052
:102478007e199000810041000ec19000a240980092
:10248800fe189000910078008180e8007e19900085
:10249800810041001ec19000a2409800fe189000e3
:1024a8009100780063814000fe189000820878004f
:1024b8008ec09000014f78001ec19000124798000e
:1024c8001e0009003e187800e003b100ee03b100d9
:1024d8000080fa00000006004600fa00881f780015
:1024e80000047800711f980002c79800132798000d
:1024f800242798002e209000e00f50002b00320077
:102508007e189000900078001e209000004078000f
:102518007e19900081004100a04098007e1890002c
:10252800100078000000e800fe18900000804000cd
:102538008ec0900021409800ae2090007e18900038
:102548000081e8007e189000100078000080e80004
:10255800000041001e21900035fb07007e18900006
:10256800900078001e209000008040008080e800e5
:102578007e189000010878000ec09000004f780087
:1025880020c5b30010479800ae2090000e80e800e8
:102598001e21900026fb07001e0009003e1c780043
:1025a800e803b100ee03b1000500370023c5b3000e
:1025b8000ec19000fe189000080078009fff0700e9
:1025c800080078004f0478000080fa000000060038
:1025d8000000fa00e0012000303a8800213a80002b
:1025e800f0f32f0000806000203a8800213a800034
:1025f80000fe2f0000806000203a880040a7a90054
:102608003200200080072000a10920003374200038
:1026180080497800814978008249780012002000ba
:102628006004200071052000237420008049780090
:10263800814978008249780000000000113a800042
:10264800000027008080600000002300808f500079
:10265800faff3a0000000000113a80000002200052
:1026680000806000e00f5000fbff32000080fa009d
:10267800000006000a00fa0000802000000f780021
:102688000000eb00100798000000280020079800c1
:10269800b0cb2000300798002000200040079800a9
:1026a8004e029000be0190002e0190009e00900006
:1026b8001e00780023f90700ce21a900ce01a90049
:1026c800ce61a900ce41a90040f02f002df90700e6
:1026d8000041eb0001802000100020001ff90700d6
:1026e8000041eb0001802000200020001bf90700ba
:1026f80070ff2f00f1f807000080fa0000000600c4
:102708000000fa00e1a1a800010f8000007020007d
:1027180000807000000f8800e0e1a800e0c1a90077
:10272800e041a900e2e1a800110f8000f0f82f00b5
:10273800808060000006200000807000100f880074
:102748000080eb00300f88000000eb00200f8800ad
:102758000080fa00000006000000fa00f1a1a800bd
:10276800810f80000070200000807000800f8800ba
:10277800f0e1a800f0c1a900f041a900f2e1a80029
:10278800910f8000f0f82f00808060000006200084
:1027980000807000900f88000080eb00b00f880068
:1027a8000000eb00a00f88000080fa00000006007f
:1027b8000000fa00110a800080ff2f0000806000ee
:1027c800100a880042e1a800110a8000f0f92f00e1
:1027d800808060000002200000807000100a8800dd
:1027e800110a800080ff2f00008060000000a00018
:1027f800100a880021058000000720000080700072
:10280800200588008420a9009420a8000080fa00f0
:10281800000006000000fa00310a800080ff2f0047
:1028280000806000300a880046e1a800310a800074
:10283800f0f92f0080806000000220000080700006
:10284800300a8800310a800080ff2f000080600075
:102858000000a000300a8800310580000007200031
:10286800008070003005880084a0a90094a0a8000a
:102878000080fa00000006000000fa0005e1a90047
:1028880005a1a80004c1a90021088000f0fc2f00c0
:1028980000806000200888000441a9000421a900e4
:1028a8000000eb000008880000c429001008880018
:1028b80021058000f0ff28008080600000002500ce
:1028c80000807000200588008460a9009460a8003a
:1028d80005e1a8000080fa00000006000000fa00e8
:1028e80011e1a90011a1a80010c1a9008108800068
:1028f800f0fc2f0000806000800888001021a900eb
:102908000000eb00300888000080eb0060088800b9
:102918003105800000002700008070003005880025
:1029280084e0a90094e0a80011e1a8000080fa0062
:10293800000006000000fa0021058000f08f2f003b
:102948008080600000302000008070002005880032
:102958008440a9009440a80031058000f08f2f0022
:102968008080600000102000008070003005880022
:1029780084c0a90094c0a8000080fa0000000600e6
:102988000000fa002002a9000111800090ff2f002a
:10299800008060000011880020a2a9002062a90020
:1029a800400120004011880023a2a90023e2a900c9
:1029b8009580a90011118000f0f32f0000806000bd
:1029c8001011880021e2a8002342a8009c20a90039
:1029d80041058000f0ff2800808060000000220090
:1029e80000807000400588008560a9009560a800f7
:1029f8000080fa00000006000000fa00f00720003e
:102a0800501c8800d0002000101c8800011c800089
:102a1800f0fc2f0080806000000220000080700021
:102a2800001c8800011c8000c0ff2f00008060008f
:102a3800001c880000602000201c88000030200056
:102a4800401c88008480a9003105800080ff2f0089
:102a5800008060006000b300300588009480a80002
:102a68008de3a8000080fa00000006000000fa00cc
:102a78008de3a9008dc3a8008da3a8008d83a900ac
:102a88008d63a900611c8000f0fc2f0000806000ad
:102a9800601c8800611c8000c0ff2f00008060005f
:102aa8000000a000601c8800b0032000b01c880053
:102ab800c0002000701c880000702000801c880066
:102ac80040222000a01c88005105800000702000d2
:102ad800008070005005880085c0a90095c0a80036
:102ae8000080fa00000006000000fa0001198000ca
:102af800f0cf2f00008060000019880001198000c5
:102b0800f0f12f0080806000000620000080700037
:102b1800001988002043a8002143a90021a3a80088
:102b28002063a8002343a90011198000f0cf2f00cb
:102b3800808060000010200000807000101988005c
:102b48002223a9002203a90025e3a9002119800056
:102b580000f021000080700020198800f0c3b30045
:102b680024e3b7002183a9001119800030fc2f004d
:102b7800008060000020a0001019880091198000d2
:102b880080ff2f00008060006000b300901988006b
:102b980031198000f09f2f000080600030198800f4
:102ba8002703a9003119800090ff2f0000806000e2
:102bb800301988002603a90029e3a90041198000db
:102bc800f00f2e00008060004019880028e3a9005b
:102bd8004119800000fe2f00008060000000a00066
:102be800401988000080eb00601988002c03a900b8
:102bf8002c23a90085a0a90095a0a90021e3a8007d
:102c08000080fa00000006000200fa00004f780079
:102c1800d13f82001e407800010001000080fa00c8
:102c2800000006000200fa00004f780030c2b3002e
:102c38009e40780080cf500004003a0020632100b5
:102c4800d03f8a000000eb0002003700d0ff2f00c1
:102c58003c0007000080fa00000006000200fa00ad
:102c6800004f7800c0c3b3009e40780080cf50006a
:102c780003003600c0ff2f003200070006003700af
:102c880040652100d03f8a009e4078000180fb000b
:102c9800303d8a000000eb000080fa0000000600ca
:102ca8000400fa0020479800e03f82008000e80016
:102cb800303d82000000e800808f500016003a0086
:102cc80060612100d03f8a00e03f820080007800e8
:102cd800807a2400010178008000eb0022000700c0
:102ce8000080fb00000f78002e4090000080fb0061
:102cf8009e007800808f500004003a000000eb002e
:102d0800e03f8a00100020000c003700a0ff2f00d1
:102d18000c00070009003700e13f8200807a240098
:102d280000804000ae40900001487800e03f8200fb
:102d38000000e800e03f8a000000eb000080fa0095
:102d4800000006000200fa00000f78000000eb0007
:102d5800e03f8a0060612100d03f8a001e007800b1
:102d68000080fa00000006000a00fa002007980018
:102d780031079800420798000040eb00004f7800a8
:102d88003e00900010079800080037001e009000d1
:102d9800ae00900000804000104078001e4f4000b8
:102da8001e0090000000e800100798009e009000a8
:102db8004e009000808f5000f4ff35001e407800d0
:102dc8000080fa00000006000200fa00881f780060
:102dd8000170240030c2b300804878005e989700e4
:102de8000040780011702400804878000000eb0053
:102df800000f7800080037009e80e8001e80e80079
:102e0800660157000000410000c0970002702400ce
:102e180000f178001e0fe8009e0078005e98970089
:102e2800808f5000f4ff39005e9897000084e80016
:102e38005e9897000080e800800078000070240009
:102e48000101780021002000c7ff0700017024005d
:102e580080707c005e9897000080e800b01c8800b5
:102e68008de3a8008fe3a8004f0478000080fa00e3
:102e7800000006000000fa0021742000520420001f
:102e880073052000824878008348780042c7a9006b
:102e98007134800000fe2f00008060005000b300f5
:102ea8007034880071348000f00f2e00808060003c
:102eb80000a020000080700070348800e134800099
:102ec80000fe2f00008060005000b300e03488004e
:102ed800e1348000f00f2e00808060000060200048
:102ee80000807000e03488000135800000fe2f006b
:102ef80000806000b000b300003588000135800014
:102f0800f00f2e008080600000a02000008070007c
:102f1800003588002135800000fe2f000080600009
:102f28000030a0002035880041368000f00f2e00c8
:102f380080806000003020000080700040368800eb
:102f48002174200052042000730520008248780074
:102f58008348780042c7a800c082a900c842a900d7
:102f6800c862a900c482a900c2fd0700e4fd0700e9
:102f7800f9fd07000efe070026fe070057fe0700b2
:102f8800d9fe07009cfe07007dfe0700b7fe07007c
:102f980039fe070067fe07000080fa0000000600ff
:020000040000fa
:102fa8000c080000120000000200000000000000f1
:102fb8000000000000000000000000000000000009
:102fc80000000000e64700001400000002000000b6
:102fd80000000000000000000000000000000000e9
:102fe800000000000000000000000000484700004a
:102ff8005e00000000000000000800000c00000057
:10300800000000003c4700000c0000000000000029
:10301800004600000001000000000000fa47000020
:103028000400000002000000161600000000000066
:10303800a647000040000000000000000047000014
:0c3048003c000000000000000000000040
:020000040000fa
:103054000000fa005ffd070087ff07007df8070006
:10306400a4f80700bef8070023f90700ffff3700a4
:00000001FF
