:020000040000fa
:080000000002040000000000f2
:020000040000fa
:10040000af9b20000e5f24000e018800000000005a
:100410000c000700600d2200010020001100070001
:10042000000020000000e000020032000000020096
:10043000000000004a210200000000000040da0035
:100440000000fe004440a900000020000000e00081
:100450000300320000002000a00188004440a800f2
:100460000000060091018800800078000000eb0089
:1004700015003700e280400032a0b4009101ba00bc
:10048000e280400032a0b4009102ba00e280400055
:1004900032a0b4000002eb00472bde00f507b200eb
:1004a000602ce10004003a000059eb008301e900f0
:1004b000fdff3e00040037006128e100010032002a
:1004c0000082eb00040007001101ba000200e00006
:1004d000e8ff3a00000006003159ba008301e90044
:1004e0000c0032002159ba008301e90008003200f3
:1004f0000400e00003003a00e280400032a0b400b3
:10050000f5ff370011d9ba008301e900faff3a007c
:100510008100e800e180400032a0b4000000060045
:100520009a1e040000000000bc1e04000000000031
:100530007e1e04000000000000a0fe003400f80051
:10054000881f780008002000a80188004f04780068
:100550000400fa00000a8000000f7800000a800002
:10056000100798008420a900814c8000600880005a
:100570000088b900000078009e0040001e00900036
:100580000080500001002000a04c8800b14c880081
:100590000000eb00804c8800010f800000802000ec
:1005a00000806000e00f50000200320010002000c8
:1005b000010037000080eb00e04c88000080fa006a
:1005c0003400f9000080fe000040060000a0fe009c
:1005d0003400f800881f780008002000a801880077
:1005e0004f0478000400fa00200a8000000f780011
:1005f000200a80001007980084a0a900914c800078
:10060000600880000088b900000078009e0040006b
:100610001e0090000080500001002000c04c8800a7
:10062000d14c88000000eb00904c8800810f8000c6
:100630000080200000806000e00f500002003200c7
:1006400010002000010037000080eb00f04c880013
:100650000080fa003400f9000080fe00004006002f
:100660003600f800809fbe00821f78003400f8003a
:1006700000002000a00188000000fa008460a900aa
:100680008440a800714c8000a00020000001780088
:10069000110009008280d8008000fd00e00f5000aa
:1006a00003003a008bc0a8000000eb00704c8800eb
:1006b000614c8000401f20000001780011000900fb
:1006c0008280d8008000fd00e00f50000f003a004b
:1006d000201680004400de00614060000004a2009b
:1006e000614060000080fb00610060004400dd00ac
:1006f00022168000f1fe2f00810061000080700052
:10070000201688000000eb00604c8800604c8000e0
:100710000000e800604c8800704c80000000e80099
:10072000704c88000080fa003400f9004f01780016
:100730004f00be003600f9000040060000a0fe0099
:100740003400f800881f780008002000a801880005
:100750004f0478000000fa0084e0a900a04c80005b
:10076000b14c8000e00f5000e08f580003003200d1
:10077000804c80000000e800804c8800c04c800065
:10078000d14c8000e00f5000e08f58000300320091
:10079000904c80000000e800904c88000080fa0037
:1007a0003400f9000080fe00004006003600f8002a
:1007b000809fbe00829fbe00849fbe00869fbe00b9
:1007c0003400f80000002000a00188000000fa00ba
:1007d0008440a90043050700d03e8a002e0607008a
:1007e000b03e8a0077060700c03e8a000080fa000b
:1007f0003400f9004f03be004f02be004f01be009f
:100800004f00be003600f900004006003600f80038
:10081000809fbe00829fbe00849fbe00869fbe0058
:100820003400f80000002000a00188000000fa0059
:1008300084c0a90002070700f03e8a000080fa0089
:100840003400f9004f03be004f02be004f01be004e
:100850004f00be003600f900004006003600f800e8
:10086000809fbe00829fbe00849fbe00869fbe0008
:100870003400f80000002000a00188000000fa0009
:100880008bc0a9001c0c0700e03e8a000080fa0023
:100890003400f9004f03be004f02be004f01be00fe
:1008a0004f00be003600f900004006000000fa00cc
:1008b0000011800066006000e60f500002003a0060
:1008c000301180000300370031118000f00f20004c
:1008d000008060000080fa00000006003600f8008a
:1008e000809fbe00829fbe00849fbe00869fbe0088
:1008f0003400f80000002000a00188000000fa0089
:100900008560a9001011800061006000e00f5000b8
:1009100007003200e5ff070000407800f00c0700f8
:10092000e00f50000f00320084c0a8000d00370017
:100930001011800064006000e00f500002003200df
:100940000080eb003b0d070010118000620060008a
:10095000e00f5000030032002222a900e0ff2f0028
:10096000340d07000080fa003400f9004f03be0088
:100970004f02be004f01be004f00be003600f9001e
:10098000004006003600f800809fbe00829fbe0037
:10099000849fbe00869fbe003400f8000000200047
:1009a000a00188000000fa008480a9004e0607001c
:1009b0000080fa003400f9004f03be004f02be0071
:1009c0004f01be004f00be003600f9000040060097
:1009d0003400f800881f780008002000a801880073
:1009e0004f0478000000fa0085c0a9000080fa00da
:1009f0003400f900004006000000fa008020a90041
:100a0000ffff37000000fa008060a900ffff3700f9
:100a10000000fa008040a900ffff37000000fa0044
:100a20008080a900ffff37000000fa0080a0a90025
:100a3000ffff37000000fa008020a900ffff370009
:100a40000000fa008060a900ffff37000000fa00f4
:100a50008040a900ffff37000000fa008080a90055
:100a6000ffff37000000fa0080a0a900ffff370059
:100a70000000fa00ffff3700881f78008a1f780007
:100a80004400f800080f20002802880000049000ad
:100a900010059000a000900030019000c00190006f
:100aa0000300ca000280ca000030cb001a00cd004b
:100ab0004604c3000100ca004604c0001e04c00072
:100ac0000605c0000100cd0021009800050d78004a
:100ad000eaba9700052578004400f9004f05780030
:100ae0004f04780000000600801f78004000b0002e
:100af0000008eb004f007800801f78001000900085
:100b00000018eb000018eb000008eb004f00780025
:100b1000000006004400f800020f200022028800b6
:100b2000910078003000ca003080ca000000cb007d
:100b30002080ca000000cb003100cd004000ca0078
:100b40000000cb000000cb000010cb003100cd0036
:100b50001180cc004400f900000006008b20a900a1
:100b60008be0a900670160004411dd0003068000ee
:100b7000f1f82f00818061008280700001068800fa
:100b8000000178000207b2004811dd001306800062
:100b9000f1ff2800818061008280700011068800ca
:100ba000680160004311de00610161004911dd0050
:100bb000d10480000190a10082807000d1048800df
:100bc0000008b2004700de00610060004f00dd0059
:100bd000d104800001f0a10080807000d104880061
:100be00000000600200e8800310e8800430e8800a9
:100bf000540e8800020e88000000060061016100aa
:100c0000530e80000300a10082817100530e880002
:100c10000000e90000004000621d20000131780062
:100c200000000600600e88000000060003f0a2002d
:100c3000889fbe008a9fbe008c1f7800620107005b
:100c4000690133006450e1004f0032006420e1008c
:100c50005200320003826c0007003b000905d000ff
:100c60000306d000820f54000c065d00020039001c
:100c70000200320089017800030678008582550061
:100c800004003d000003fd008103fd008502ea0031
:100c90008b854200840f720002003b006000100050
:100ca000e08018006011b8000005eb007a28e10030
:100cb0000a00390006007800c75ddd00f707b200c2
:100cc000878075002d003700828171000a0178004d
:100cd000610560008180d1000080d3008502e900b9
:100ce000f9ff3b00060440008784480002003b00f7
:100cf00060041400e0841c000988a300070032008f
:100d00008a81710082817100610164008904d100cf
:100d10000884d3008b05e800170037000978a3008a
:100d200013003a000b00e000130034008b05e900cb
:100d30000804440089844c000a4474000978a30024
:100d40000d003a000b00e000070034008b05e900bd
:100d50000804440089844c0001003a000b00200084
:100d60000978a300f7ff32000001eb000200370012
:100d7000828171000a017800d80007000cf0a700fa
:100d800001f0a000210137006420e10002003a00d8
:100d9000838f6c00210133000801be000200be00f9
:100da0001a0137000081eb0053013700889fbe0015
:100db0008a9fbe008c1f7800030107000a013300e0
:100dc00003866c006450e1002e0032006420e100d4
:100dd000330032006150e1002f0032006120e10059
:100de0003100320085855500eb07b0000900200076
:100df00008042000050037000804440089844c00e2
:100e00000a0031000603430087834b0000015300b2
:100e100081815b00f8ff33000203be000800a000e0
:100e20000804440089844c00f6ff3900c639dd000f
:100e30008301730001003200130020008904d100f7
:100e40000884d3000998a300050032000800a70019
:100e50000300a0008904d1000884d3008b05e800ba
:100e60008904d1000884d3000001eb000281d20084
:100e70009a00070001f0a1000cf0a70001f0a0000b
:100e8000e20037006420e100e40032000801be0007
:100e90000200be00f7ff37006120e100df003200f2
:100ea0006000b800f3ff37000000200001f82700c1
:100eb000f0ff3700839f68000100e00002003d0062
:100ec00060001000e08018000300e00002003d0018
:100ed00060011100e0811900720107004f00e0007d
:100ee00002003b0060001000e080180000000600d7
:100ef000140020007b013700f4ff2f007901370038
:100f00000001be009b0007000470a70003f0a100d1
:100f10006509b100160032000d0035006828e100b7
:100f200006003500f0ff2f00f1ff27000300e0006e
:100f300013003b00010028000000050000004000f5
:100f4000818048008502e900fcff3a000800370074
:100f5000f88f420002003c008000eb00000005001a
:100f60008100d1000080d3008502e800fcff3a0038
:100f70000300e00002003b0060001000e080180069
:100f8000000006004f89de00820178007001370002
:100f90006011b8007e013700040020000000370017
:100fa000889fbe008a9fbe008c1f78004f26dd0000
:100fb000850007008c0033006120e100430032000f
:100fc0006250e10041003e003e0039006420e10033
:100fd0003c003200058255000f003b000402e8008f
:100fe00038003a00800f5300818f5b0035003400d9
:100ff0000800be0003f0a10001f0a60003f0a0006d
:101000000cf0a7000aff070080003700060343002a
:1010100087834b000c4646000005530081855b002a
:10102000020033000a03be000c00a0000402e90025
:10103000f6ff3b00850578000602430087824b00df
:1010400004003a006000b80009f0a70001f0a00019
:101050006e0037000002520081825a000704e0004f
:10106000040033000603430087834b008b05e9002f
:10107000faff3700090578000604be000203be002f
:101080006011b80015000700e00f5200e08f5a0011
:101090000700350002003c000c08a30004003200e9
:1010a0000601be0003f0a0000cf0a700e0fe070060
:1010b0000a85680001f0a1000af0a70001f0a00075
:1010c000520037000800be00500037001002200018
:1010d0000cf0a6006040880050003700810020001e
:1010e000618055000b003d000b00200061fe2f00c9
:1010f0000100e1001d003400828171006101640083
:101100008904d1000884d3000000e800faff3a0007
:1011100071002000610064000300700002006000a4
:101120000900320061044400e0844c000988a500f5
:10113000050032008b05e8006808e10002003a0073
:101140008904d1000884d300f20f20000258e10086
:1011500005003d00c75ddd00f907b200898075001c
:1011600008007800000006000bf827008b007800cc
:1011700000000500c70ade00f107b200f50fb2005b
:1011800008003200e1cf4200020032000170a000ee
:1011900024000500810f70000100320004080500e2
:1011a00044000500810f700002003a0014000500a1
:1011b0008502e9000000400081c04800fcff3b00c0
:1011c0000170a000240005000004be00e9ff070034
:1011d0000003be000405be000200be00e5ff0700dc
:1011e000844f7500000006000200be006450e1005c
:1011f000050036006420e100020036000968a30003
:1012000001003a000800be000160a0004f0678000f
:101210004f05be004f04be0000000600f0ff2f0087
:10122000f1ff2700f9ff3700889fbe008a9fbe00ac
:101230008c1f7800e4ff0700ebff330003866c008f
:101240006450e100240032006420e10027003200f5
:101250006150e100220032006120e10021003200f3
:101260008b854200eb07b1000134b800003ab800aa
:101270000804420089844a00013ab8000030b800ee
:101280008880400009014a0004003300000040004b
:1012900081804800020149008b05e900c909dd0091
:1012a000830170000100320013002000c814de002a
:1012b0004814dd004709de001200b200c808de0055
:1012c0000884700085ff070001f0a1000cf0a70062
:1012d00001f0a000cdff37006120e100cfff320018
:1012e0000801be000200be00f7ff37006150e100b8
:1012f000fcff3a00c9ff3700889fbe008a9fbe00ee
:101300008c9fbe00820578000004be0099ff070094
:101310000800be006420e1000700390002003a0026
:10132000f1ff2700f0ff2f000160a0001202200053
:1013300062408800550037006120e10003003a0058
:101340000b00a70001f823005000370001f0a100b6
:101350000200210093642400e5fe07000800be009f
:1013600004003500b2fd2000930c24000aff0700a2
:101370000004be000005eb000b00a6004f0dde00d0
:1013800001f0a1000004be0032982f0023ea2300e0
:10139000a5ff07000001eb0003f023000b00a700ee
:1013a00003f8230022fe0700d5fe07000000a70077
:1013b0000a00a200f3fe07000b00e0000300320069
:1013c0000200200003f0230018fe070001f0a20035
:1013d0000006be00020020009304240092ff0700d4
:1013e0000801be0012fe0700809fbe000c00be0078
:1013f00022a22a00d3a723008bff07004f01be00c3
:101400000bfe07000004be0001f0a1000200200056
:1014100003982300b6fe07000800be00190035003f
:101420000001be0080ff07000006be00b2c5290013
:10143000e36223007cff070022222b00f3942b00a1
:10144000fbfd07000c01be0077ff0700e2732800d8
:1014500083c02300f6fd07000c01be0072ff0700e9
:1014600042aa2a00a3e22b00f1fd07000c01be00f6
:101470006dff07000801be006bff07000801be00fa
:10148000ebfd07000a00a70001f0a2004f06be0016
:101490004f05be004f04be00000006000001eb0037
:1014a00095ff37006022b800060220000000d0003f
:1014b0008180d2000482d2008582d2000000a00088
:1014c0000202520083825a000300310002024200ed
:1014d00083824a000000a1000603e900f3ff3a00fe
:1014e00000000600889fbe008a9fbe00841f78000f
:1014f00035ff07004f00780011003300f0ff2f0088
:10150000838f6c0006003b00040565000a00a700fd
:101510000800370009f0a60010002000080037007e
:10152000820f5400838f5c000300390010002000fc
:1015300001003e000000200009f0a7000000ea00c2
:101540004f05be004f04be000000e0000000060092
:10155000881f7800030478000300e00007003d00c6
:1015600060001000e080180060011900e08119009f
:1015700002003b0001f02d000300370004000700cb
:1015800008f0a70001f0a0004f047800000006005a
:10159000889fbe008a9fbe00008270000402710016
:1015a00004827100260032000004be000200be006a
:1015b0006011b8006b092000950220000182cf0065
:1015c0000a0039000541b1000082cf000700390050
:1015d0000541b1000982cf00040039000541b10086
:1015e0000882cf00010039000541b10005425200d8
:1015f000120032000a003b00828171006101640028
:101600008100d1000080d3008984d3000884d300f6
:101610008b05e8000442e800f7ff3a0007003700b6
:101620000804440089844c00000048008180480080
:101630008b05e9000442e900f9ff3a00a7fe070024
:101640004f05be004f04be00000006008001780078
:1016500002003700b1597800040178000202e90065
:0c166000e00f5100fbff3a000000060004
:020000040000fa
:0200000401f009
:04000800ffff0000f6
:020000040000fa
:0200000401f009
:04000c00faff0000f7
:020000040000fa
:0200000401f009
:040010007dff000070
:020000040000fa
:0200000401f009
:040014007fff00006a
:020000040000fa
:0200000401f009
:04001c00dfff000002
:020000040000fa
:1000080038050000fc040000020500000805000097
:100018000e05000014050000380500003805000032
:10002800380500009c020000d603000030030000e1
:10003800c2040000e6020000060400009e0300005f
:100048003805000038050000380500006e0400007f
:100058003805000038050000e804000038050000f5
:100068003805000038050000380500003805000094
:100078003805000038050000380500003805000084
:100088003805000038050000380500003805000074
:100098003805000038050000380500003805000064
:1000a8003805000038050000380500003805000054
:1000b8003805000038050000380500003805000044
:1000c8003805000038050000380500003805000034
:1000d8003805000038050000380500003805000024
:1000e8003805000038050000380500003805000014
:1000f8003805000038050000380500003805000004
:1001080038050000380500003805000038050000f3
:1001180038050000380500002e04000038050000ee
:1001280038050000380500003805000038050000d3
:1001380038050000380500003805000038050000c3
:1001480038050000380500003805000038050000b3
:1001580038050000380500003805000038050000a3
:100168003805000038050000380500003805000093
:100178003805000038050000380500003805000083
:100188003805000038050000380500003805000073
:100198003805000038050000380500003805000063
:1001a8003805000038050000380500003805000053
:1001b8003805000038050000380500003805000043
:1001c8003805000038050000380500003805000033
:1001d8003805000038050000380500003805000023
:1001e8003805000038050000380500003805000013
:0801f800380500003805000085
:020000040000fa
:10020800380500001a05000020050000260500003a
:100218002c050000320500003805000038050000f4
:10022800380500009c020000d603000030030000df
:10023800c2040000e6020000060400009e0300005d
:100248003805000038050000380500006e0400007d
:100258003805000038050000e804000038050000f3
:100268003805000038050000380500003805000092
:100278003805000038050000380500003805000082
:100288003805000038050000380500003805000072
:100298003805000038050000380500003805000062
:1002a8003805000038050000380500003805000052
:1002b8003805000038050000380500003805000042
:1002c8003805000038050000380500003805000032
:1002d8003805000038050000380500003805000022
:1002e8003805000038050000380500003805000012
:1002f8003805000038050000380500003805000002
:1003080038050000380500003805000038050000f1
:1003180038050000380500002e04000038050000ec
:1003280038050000380500003805000038050000d1
:1003380038050000380500003805000038050000c1
:1003480038050000380500003805000038050000b1
:1003580038050000380500003805000038050000a1
:100368003805000038050000380500003805000091
:100378003805000038050000380500003805000081
:100388003805000038050000380500003805000071
:100398003805000038050000380500003805000061
:1003a8003805000038050000380500003805000051
:1003b8003805000038050000380500003805000041
:1003c8003805000038050000380500003805000031
:1003d8003805000038050000380500003805000021
:1003e8003805000038050000380500003805000011
:0803f800380500003805000083
:020000040000fa
:10166c000000fa00a0702d0031d22300f047880052
:10167c0001488800a0702d0031d22300d04788008b
:10168c00e1478800d0cc2c00c1e42300104888002e
:10169c0021488800a0d8200051bd24005048880063
:1016ac0061488800a0d8200051bd24003048880033
:1016bc0041488800302d2000719323009048880009
:1016cc00a1488800302d20007193230070488800b9
:1016dc008148880070712b00118d2300b048880060
:1016ec00c148880038000700629220006000b800f2
:1016fc000089be00629220006000b80020019800b2
:10170c0031019800e29220006000b8000089be0010
:10171c00e29220006000b80020019800310198008e
:10172c00009520008000eb0011009800009520002f
:10173c008000eb0021009800009520008000eb0059
:10174c0001087800009520008000eb003100980023
:10175c00809520008000eb001100980080952000ff
:10176c008000eb0021009800809520008000eb00a9
:10177c0001087800809520008000eb003100980073
:10178c00e291200000002c00a16524000089be001d
:10179c00e291200000002c00a1652400200198009b
:1017ac00310198000000200001f82300004b880054
:1017bc00114b8800e19420000040eb008048780039
:1017cc000080fa00000006000000fa00f0478000dc
:1017dc000148800002002000a34724008ffe070070
:1017ec00c4fd070000007800cf80de00c04b8800ed
:1017fc00d14b8800d0478000e147800002002000d8
:10180c00a347240085fe0700bafd070000007800fe
:10181c00cf80de00e04b8800f14b88001048800040
:10182c002148800002002000a34724007bfe070013
:10183c00b0fd070000007800cf80de00004c88006f
:10184c00114c88003048800041488000a9fd0700f9
:10185c00404c8800514c8800504880006148800002
:10186c00a4fd0700204c8800314c8800f447800010
:10187c000548800090488000a14880000001be000f
:10188c000400be0065fe0700c29620000089be0061
:10189c00d4478000e5478000704880008148800074
:1018ac000001be000400be005cfe0700c2962000d2
:1018bc0020019800310198001048800021488000d8
:1018cc00020020000300240035fd0700a04b880017
:1018dc00b14b88000080fa00000006000000fa00fe
:1018ec00a099290091f12300b0498800c1498800d2
:1018fc003033230031f32300d0498800e1498800bc
:10190c00d0cc2c00c1dc2300f0498800014a8800af
:10191c00a099290091f12300104a8800214a8800df
:10192c003033230031f32300304a8800414a8800c9
:10193c00d0cc2c00c1dc2300504a8800614a8800be
:10194c000080fa00000006000000fa00881f7800f2
:10195c00b0498000c149800018c0b3006011b800c4
:10196c0060fd0700e00f5000010035000044eb0063
:10197c00e04f54000b003200b0498000c149800098
:10198c00020020000370240024fe07000200200047
:10199c0003f02300a2fc070056fd070000007800ae
:1019ac000a003700b0498000c149800002e02f00d6
:1019bc00f36f240019fe07000200200003f023003f
:1019cc0098fc07004bfd07000000780020478800ba
:1019dc00d0498000e149800018c0b3006011b80004
:1019ec0040fd0700e00f5000010035000044eb0003
:1019fc00e04f54000b003200d0498000e1498000d8
:101a0c00020020000370240004fe070002002000e6
:101a1c0003f0230082fc070036fd0700000078006d
:101a2c000a003700d0498000e149800002e02f0015
:101a3c00f36f2400f9fd07000200200003f02300df
:101a4c0078fc07002bfd0700000078003047880069
:101a5c00b0498000c149800018c0b3006011b800c3
:101a6c0020fd0700e00f5000010035000044eb00a2
:101a7c00e04f54000b003200b0498000c149800097
:101a8c000200200003702400e4fd07000200200087
:101a9c0003f0230062fc070016fd0700000078002d
:101aac000a003700b0498000c149800002e02f00d5
:101abc00f36f2400d9fd07000200200003f023007f
:101acc0058fc07000bfd0700000078004047880019
:101adc00690007004f0478000080fa00000006003f
:101aec000000fa00881f7800104a8000214a80000c
:101afc0018c0b3006011b800fafc0700e00f5000ea
:101b0c00010035000044eb00e04f54000b003200a4
:101b1c00104a8000214a800002002000037024003b
:101b2c00befd07000200200003f023003cfc070070
:101b3c00f0fc0700000078000a003700104a800013
:101b4c00214a800002e02f00f36f2400b3fd070050
:101b5c000200200003f0230032fc0700e5fc070024
:101b6c0000007800a0478800304a8000414a80007d
:101b7c0018c0b3006011b800dafc0700e00f500089
:101b8c00010035000044eb00e04f54000b00320024
:101b9c00304a8000414a800002002000037024007b
:101bac009efd07000200200003f023001cfc070030
:101bbc00d0fc0700000078000a003700304a800093
:101bcc00414a800002e02f00f36f240093fd0700d0
:101bdc000200200003f0230012fc0700c5fc0700e4
:101bec0000007800b0478800504a8000614a8000ad
:101bfc0018c0b3006011b800bafc0700e00f500029
:101c0c00010035000044eb00e04f54000b003200a3
:101c1c00504a8000614a80000200200003702400ba
:101c2c007efd07000200200003f02300fcfb0700f0
:101c3c00b0fc0700000078000a003700504a800012
:101c4c00614a800002e02f00f36f240073fd07004f
:101c5c000200200003f02300f2fb0700a5fc0700a4
:101c6c0000007800c04788000f0007004f04780080
:101c7c000080fa00000006000000fa00008020003e
:101c8c00d0468800807c2400e0468800a08d20008f
:101c9c0092fb0700a18d2000408e20009afb0700cc
:101cac000080fa00000006000000fa0060802000ae
:101cbc0050478800e07c240060478800a08e2000fc
:101ccc0086fb0700a18e2000408f20008efb0700b2
:101cdc000080fa00000006000e00fa00889fbe008b
:101cec008a9fbe0000088000000f7800e09420005e
:101cfc0010407800614060000080fb0061006000d3
:101d0c004200dd0062168000b1ff2f0081006100ef
:101d1c000080700060168800e0942000104078006d
:101d2c00614060000080fb00610060004300dd004a
:101d3c006216800071ff2f0081006100008070002e
:101d4c0060168800e24b8000f34b800080952000e9
:101d5c0020009000cf80de00009ab90004027800c9
:101d6c00028bb90086027800050242000011b8000f
:101d7c000302420084017800c44b8000d54b8000e4
:101d8c000095200020009000cf80de0000abb90051
:101d9c0006037800048cb90088037800070343001d
:101dac000020b800010343008600780002004000c8
:101dbc00838048004f09de00030020000200400031
:101dcc00838048008180d1000080d30010079800e8
:101ddc0021079800c24b8000d34b80000095200057
:101dec0020009000cf80de00009ab9000402780039
:101dfc00028bb90086027800050242000011b8007f
:101e0c000302420084017800e44b8000f54b800013
:101e1c008095200020009000cf80de0000abb90040
:101e2c0006037800048cb90088037800070343008c
:101e3c000020b80001034300860078000002510026
:101e4c0081825900004c8000114c80000000400041
:101e5c00818048000001be000400be0012fc070097
:101e6c0030079800410798001e009000ae009000cb
:101e7c0041fc07000240220043972400c8fb0700e6
:101e8c00e29220000089be003e009000ce0090003f
:101e9c0039fc070002002000a3472400c0fb070008
:101eac00e29220002001980031019800d047800078
:101ebc00e14780000001be000000200001f8230073
:101ecc00b7fb07000004be00609220001005be00a6
:101edc00144880002548800060922000b0009000db
:101eec00200090000001be000400be00cbfc0700e7
:101efc000001be000a00be004afb07000001be0044
:101f0c000800be00c5fc070002002000a347240007
:101f1c00c2fc0700f7fb070050079800f047800051
:101f2c00014880000001be000000200001f82300e1
:101f3c009bfb07000004be00609220001005be0051
:101f4c00144880002548800060922000b00090006a
:101f5c00200090000001be000400be00affc070092
:101f6c000001be000a00be002dfb07000001be00f0
:101f7c000800be00a9fc070002002000a3472400b3
:101f8c00a6fc0700dbfb0700600798005e009000d2
:101f9c00e00f500001003d000000ea00cf80de00a1
:101fac00f5fb07000002be00e09120001000be000f
:101fbc0018c0b3000001be000400be00cbfb07003c
:101fcc00e00f500001003c000044eb00e04f5400d7
:101fdc0007003200e09120001000be00c5fb070096
:101fec00800078000095200001087800030037007d
:101ffc0000952000de009000010878006e00900033
:10200c00e00f500001003d000000ea00cf80de0030
:10201c00d9fb07000002be00e0912000b000900048
:10202c002000900018c0b3000001be000400be00e8
:10203c00aefb0700e00f500001003c000044eb0039
:10204c00e04f540008003200e0912000b0009000f6
:10205c0020009000a7fb07008000780080952000ee
:10206c00010878000300370080952000ee009000f6
:10207c0001087800000880001e0050004f05be00cb
:10208c004f04be000080fa00000006000800fa00b1
:10209c00889fbe008a9fbe0000088000000f780059
:1020ac00a04c8000b14c80001007980021079800cc
:1020bc006000b800a04c8800b14c8800e04c800057
:1020cc00300798000000eb00e04c880000952000e1
:1020dc008000eb0021009800a14d8000200f8000b3
:1020ec0000804000a04d88000000eb00200f88000d
:1020fc003e009000e00f5000130032003e009000b4
:10210c00cf80de009cfb07000004be005a48800014
:10211c006b4880001e009000ae00900099fb0700f9
:10212c000001be000a00be001dfb07000001be003e
:10213c000800be0039fc07006efb07008000780029
:10214c0000952000210098000095200010007800d8
:10215c000000ea0010478800009520002000900045
:10216c000000ea0000478800a08d20003ffa07001d
:10217c00f0468000c480de0010802000808040008b
:10218c000095200011009800009520001000900090
:10219c000041eb00800078001000200094fa07004a
:1021ac00000880001e0050004f05be004f04be000a
:1021bc000080fa00000006000800fa00889fbe00ac
:1021cc008a9fbe0000088000000f7800c04c800081
:1021dc00d14c800010079800210798006000b800cf
:1021ec00c04c8800d14c8800f04c8000300798001f
:1021fc000000eb00f04c8800809520008000eb0084
:10220c0021009800b14d8000a00f8000008040009c
:10221c00b04d88000000eb00a00f88003e0090003d
:10222c00e00f5000130032003e009000cf80de0023
:10223c0051fb07000004be003a4880004b48800068
:10224c001e009000ae0090004efb07000001be0087
:10225c000a00be00d2fa07000001be000800be0052
:10226c00eefb070023fb0700800078008095200020
:10227c00210098008095200010007800904788007d
:10228c00809520002000900080478800a08e2000c0
:10229c00f6f9070070478000c480de001080200033
:1022ac0080804000809520001100980080952000cf
:1022bc00100090000041eb0080007800200020000e
:1022cc004bfa0700000880001e0050004f05be00ae
:1022dc004f04be000080fa00000006000e00fa0059
:1022ec000000eb00000f78006000b8003007980089
:1022fc00410798006000b8005007980061079800eb
:10230c000000eb00000f78001a0037003e0190002f
:10231c00ce0190001e007800800040000060240078
:10232c000080400010007800cf80de0002004000ea
:10233c008380480030079800410798005e019000a8
:10234c00ee019000010420001e804000800040003f
:10235c00006024000080400010007800cf80de0078
:10236c0002004000838048005007980061079800e5
:10237c001e0fe800f00320009e007800808f5000b4
:10238c00e2ff3400e04c800010079800f04c800015
:10239c00200798002e0090006101b9003e009000cb
:1023ac00ce009000009ab90004027800028bb900ac
:1023bc0086027800050242000010b80001024200bb
:1023cc00840078004a09dd004600de000000710040
:1023dc00c688de008000780000952000310098004f
:1023ec002e0090006101b9005e009000ee0090009c
:1023fc00009ab90004027800028bb90086027800ba
:10240c00050242000010b80001024200840078006e
:10241c004a09dd004600de0000007100c688de00bf
:10242c008000780080952000310098000080fa0030
:10243c00000006006802fa000008800020079800df
:10244c000000eb0030079800200d20000e0040002b
:10245c00c20c2000e180200079fc07000000eb009a
:10246c00000f7800580037001e80e800000047007d
:10247c0020d09100e14f50000300360030c4b3006f
:10248c0020479800050037001e80e8000080e80017
:10249c0000004700a0d09100214798002e409000ea
:1024ac000080fb006101b900d0fb2f00f1ff2f0071
:1024bc000200400083804800f2002000030020004e
:1024cc00820f5000838f580035003e0000600100e1
:1024dc000f0037003400370033003700320037006c
:1024ec0031003700300037002f0037002e00370046
:1024fc00190037002c0037002b003700160037006e
:10250c002900370028003700270037001200370059
:10251c001e80e800800178001e00e8000080e800c2
:10252c000000470020d09100e51920008e82420067
:10253c00210d20008e8040000181e800e60047005c
:10254c0003027800820178000041780005007800d1
:10255c0030000700150037001e80e8000080e800fe
:10256c0000004700a0d091001e00e8000080e800a9
:10257c000000470020d09100e51920008e82420017
:10258c00660347000002eb008141780000417800af
:10259c0086007800050078004d0107000300370025
:1025ac000000000001003700000000001e80e80061
:1025bc000000470020d091000080fb000000e800e4
:1025cc001e0f40001e0fe8009e0078001ea8900011
:1025dc00808f5000a4ff3900cf0cb00040f32f00c7
:1025ec000f0040008e0078006100b000650009000b
:1025fc0031187800c00cb1002c060700cf0cb100cc
:10260c00010880002e009000008050000080fa002d
:10261c0000000600ac01fa00881f78000004780066
:10262c0051af980042df990073af980004b798003f
:10263c004ed891000000fb006101b900f0fb2f00a7
:10264c00f1ff2f000200400083804800320320007d
:10265c0003002000820f5000838f5800ea003e00d8
:10266c000060010043003700530037006a00370058
:10267c00e5003700a9003700e3003700e20037001f
:10268c00e1003700e0003700df003700de003700e4
:10269c00dd00370099003700db003700da00370027
:1026ac0073003700d8003700d7003700d60037004a
:1026bc0064003700d400370085003700d2003700a3
:1026cc00d1003700d0003700cf003700ce003700e4
:1026dc00cd003700cc003700cb003700ca003700e4
:1026ec00c9003700130037001a003700c600370046
:1026fc00c5003700c4003700a5003700c200370002
:10270c00c1003700c0003700bf003700be003700e3
:10271c00bd003700bc003700bb003700ba003700e3
:10272c0091003700b8003700b7003700a20037001f
:10273c00850037004ed891000002eb00e3c4b300d3
:10274c0000417800dea8900008007800e000070047
:10275c00b60037004ed891000002eb00e3c4b30082
:10276c0000417800dea8900008007800d80007002f
:10277c00ae00370060932000000f78006400470023
:10278c001e037800c50020000eb29000fea9900038
:10279c004ed99100dea89000a80007006afc070043
:1027ac000e0078004000b00064000900301c780076
:1027bc00a80cb1009d00370020942000000f780079
:1027cc00200e20000e0040001e037800c5002000e3
:1027dc000eb29000fea990004ed99100dea8900098
:1027ec00960007008e0078004100b0000e007800c3
:1027fc00200eb00064000900b0187800b8fc070087
:10280c008e0078004100b00064000900311c780093
:10281c00a80cb10085003700009a2000000f78004a
:10282c001e037800050120000eb29000fea9900056
:10283c004ed99100dea89000080078007f000700b8
:10284c007a003700e0912000000f78001e0378001a
:10285c00850020000eb29000fea990004ed9910088
:10286c00dea8900008007800740007006f003700a5
:10287c00a08f2000000f7800200e20000e004000da
:10288c001e037800450220000eb29000fea99000b5
:10289c004ed99100dea89000680007000e00780069
:1028ac004000b0008e007800210eb00064000900da
:1028bc0031187800c4fb07000e0078004000b0000f
:1028cc0064000900301c7800a80cb10057003700d8
:1028dc0060922000000f78001e0378008500200015
:1028ec000eb29000fea990004ed99100dea8900087
:1028fc0008007800510007004c0037004ed89100ba
:10290c000002eb00e3c4b30000417800dea89000a5
:10291c00080078006e00070044003700e0942000a7
:10292c00000f78001e037800250020000eb29000e6
:10293c00fea990004ed99100dea890000800780006
:10294c003e000700390037004ed891000002eb0022
:10295c00e3c4b30000417800dea8900008007800c2
:10296c005b000700310037002a020700204798005f
:10297c004ed891000002eb00ae419000004178006f
:10298c00dea89000080078005100070027003700ef
:10299c0024020700204798004ed891000002eb005b
:1029ac00ae41900000417800dea89000080078004d
:1029bc00470007001d003700200e20000e004000cd
:1029cc001c0207008e007800e10cb0000e007800ad
:1029dc00200eb0000a000900b0587800e10c20006d
:1029ec00010f47001e037800b50020000eb29000c6
:1029fc00fea990004ed99100dea890000800780046
:102a0c000e0007000900370060ff2f0006050700c5
:102a1c004ed891000002eb00e3c4b30000417800f3
:102a2c00dea8900008007800290007000800780054
:102a3c004f0478000080fa00000006000c00fa0039
:102a4c00881f780000047800010f78002247980056
:102a5c0023079800340798004507980056079800fc
:102a6c005e009000e00f50000e003200ae009000af
:102a7c003e009000808040005e0090004e0190006f
:102a8c00effa07002e4090000002eb00b3c4b30035
:102a9c00004178009e007800080078000c000700c8
:102aac00070037002e4090000002eb00e3c4b30097
:102abc00004178009e0078000800780004000700b0
:102acc00080078004f0478000080fa00000006002f
:102adc000600fa00881f780000047800010f7800c7
:102aec002247980033479800240798003e409000f6
:102afc000080fb006101b900d0fb2f00f1ff2f001b
:102b0c000200400083804800f200200003002000f7
:102b1c00820f5000838f58001d003e0000600100a2
:102b2c000f0037001a003700190037001800370063
:102b3c001700370016003700150037001400370057
:102b4c000d00370012003700110037000a00370063
:102b5c000f0037000e0037000d0037000000370063
:102b6c00ae0190002e4190009e0078000800780085
:102b7c00130007000e003700be4190002e4190005c
:102b8c009e00780008007800360107000800370026
:102b9c0070ff2f00a40407000002eb00e3c4b30095
:102bac002e4190009e00780008007800c8ff0700b6
:102bbc00080078004f0478000080fa00000006003e
:102bcc00ce00fa00881f78000004780041a7980016
:102bdc0022cf990063a798002ec891000080fb00bb
:102bec006101b900f0fb2f00f1ff2f000200400043
:102bfc00838048003203200003002000820f500025
:102c0c00838f58000b013e00006001004b00370021
:102c1c005f0037007300370006013700ab00370048
:102c2c0004013700030137000201370001013700ae
:102c3c0000013700ff003700fe0037009700370017
:102c4c00fc003700fb00370071003700f90037003b
:102c5c00f8003700f700370078003700f500370030
:102c6c0082003700f3003700f2003700f100370024
:102c7c00f0003700ef003700ee003700ed003700b2
:102c8c00ec003700eb003700ea0037001300370088
:102c9c001e003700e7003700e6003700e50037007c
:102cac00c8003700e3003700e2003700e1003700ce
:102cbc00e0003700df003700de003700dd003700b2
:102ccc00dc003700db003700a9003700d9003700e3
:102cdc00d8003700d0003700900037000095200056
:102cec003002be002003be00049fbe000697be004b
:102cfc000e027800830020002ec99100cea0900017
:102d0c0008007800fe000700d200370080952000f4
:102d1c003002be002003be00049fbe000697be001a
:102d2c000e027800830020002ec99100cea09000e6
:102d3c0008007800f2000700c600370060932000fe
:102d4c008e0078001003be008688be00e480400030
:102d5c00640040001001be008288be00e480400088
:102d6c00640040001002be008488be00e480400075
:102d7c00640040000e027800c30020002ec99100b0
:102d8c00cea0900008007800dd000700b1003700ed
:102d9c00209420008e0078001003be008688be00b0
:102dac00e4804000640040001001be008288be0038
:102dbc00e4804000640040001002be008488be0025
:102dcc00e4804000640040000e027800c300200044
:102ddc002ec99100cea0900008007800c800070012
:102dec009c003700059a200007000900351f780069
:102dfc000e01b1000e027800030120002ec99100d3
:102e0c00cea0900008007800bd00070091003700ac
:102e1c00a68f200011000900361f78004e02b10069
:102e2c000e027800430220002ec99100cea0900023
:102e3c0008007800b200070086003700e0912000ff
:102e4c003002be002003be00049fbe000697be00e9
:102e5c000e027800830020002ec99100cea09000b5
:102e6c0008007800a60007007a0037006092200066
:102e7c003002be002003be00049fbe000697be00b9
:102e8c000e027800830020002ec99100cea0900085
:102e9c00080078009a0007006e003700e0922000ce
:102eac003002be002003be00049fbe000697be0089
:102ebc000e027800830020002ec99100cea0900055
:102ecc00080078008e000700620037006016800052
:102edc0064006000e00f50000600320060168000b5
:102eec0068006000e00f500002003200100020006b
:102efc00010037000000eb0000407800004f780024
:102f0c000e027800230020002ec99100cea0900064
:102f1c00080078007a0007004e003700407d24003e
:102f2c008e0078001003be008688be00e48040004e
:102f3c00640040001001be008288be00e4804000a6
:102f4c00640040001002be008488be00e480400093
:102f5c00640040000e027800c30020002ec99100ce
:102f6c00cea09000080078006500070039003700fb
:102f7c00007e24008e0078001003be008688be0000
:102f8c00e4804000640040001001be008288be0056
:102f9c00e4804000640040001002be008488be0043
:102fac00e4804000640040000e027800c300200062
:102fbc002ec99100cea090000800780050000700a8
:102fcc0024003700c07e24008e0078001003be0061
:102fdc008688be00e4804000640040001001be0002
:102fec008288be00e4804000640040001002be00f5
:102ffc008488be00e4804000640040000e0278002b
:10300c00c30020002ec99100cea0900008007800cb
:10301c003b0007000f0037000002eb00e3c4b300d5
:10302c002ec99100cea0900008007800a8fe0700e1
:10303c000800370050ff2f007b0307000002eb0055
:10304c00e3c4b3002ec99100cea090000800780014
:10305c009ffe0700080078004f0478000080fa00fb
:10306c0000000600ce00fa0051a7980042cf99004c
:10307c0053cf9900dea09000910078005ea19000e3
:10308c000101410011c0b30021419800dea0900065
:10309c00910078008100e8005ea190008100410061
:1030ac004ec99100a2409800dea0900091007800db
:1030bc008180e8005ea19000810041005ec9910012
:1030cc00a2409800dea0900091007800638140003f
:1030dc00dea0900082087800cec89100014f7800e5
:1030ec005ec9910012479800640009003e187800f0
:1030fc00a00cb100ae0cb1000080fa00000006007c
:10310c00d200fa00881f78000004780051a79800bc
:10311c0042cf990073a7980004af98000ea89000b6
:10312c00e00f50002b0032005ea090009000780061
:10313c007ea09000004078005ea1900081004100cc
:10314c00a04098005ea09000100078000000e800fd
:10315c00dea0900000804000cec891002140980075
:10316c008ea890005ea090000081e8005ea0900008
:10317c00100078000080e800000041007ea1900063
:10318c002ff907005ea09000900078007ea09000c0
:10319c00008040008080e8005ea09000010878006c
:1031ac004ec89100004f780020c5b300104798001e
:1031bc008ea890000e80e8007ea1900020f90700f8
:1031cc00640009003e1c7800a80cb100ae0cb100e4
:1031dc000500370023c5b3004ec99100dea0900056
:1031ec00080078009fff0700080078004f04780063
:1031fc000080fa00000006000000fa00f0ff270033
:10320c00d048880010002000e04888000080fa00b8
:10321c00000006000000fa00e0c4b3000080fa00d1
:10322c00000006000000fa00e0c4b3000080fa00c1
:10323c00000006000c00fa000a0009003e58780055
:10324c00b000b100be00b1000080fa000000060022
:10325c000000fa00e0012000303a8800213a80009a
:10326c00f0f32f0000806000203a8800213a8000a3
:10327c0000fe2f0000806000203a880040a7a900c3
:10328c003200200080072000a109200033742000a8
:10329c00804978008149780082497800120020002a
:1032ac006004200071052000237420008049780000
:1032bc00814978008249780000000000113a8000b2
:1032cc00000027008080600000002300808f5000e9
:1032dc00faff3a0000000000113a800000022000c2
:1032ec0000806000e00f5000fbff32000080fa000d
:1032fc00000006000a00fa0000802000000f780091
:10330c000000eb0010079800000028002007980030
:10331c00b0cb200030079800200020004007980018
:10332c004e029000be0190002e0190009e00900075
:10333c001e00780028f60700ce21a900ce01a900b6
:10334c00ce61a900ce41a90040f02f0032f6070053
:10335c000041eb00018020001000200024f6070043
:10336c000041eb00018020002000200020f6070027
:10337c0070ff2f00f6f507000080fa000000060031
:10338c000000fa00e1a1a800010f800000702000ed
:10339c0000807000000f8800e0e1a800e0c1a900e7
:1033ac00e041a900e2e1a800110f8000f0f82f0025
:1033bc00808060000006200000807000100f8800e4
:1033cc000080eb00300f88000000eb00200f88001d
:1033dc000080fa00000006000000fa00f1a1a8002d
:1033ec00810f80000070200000807000800f88002a
:1033fc00f0e1a800f0c1a900f041a900f2e1a80099
:10340c00910f8000f0f82f008080600000062000f3
:10341c0000807000900f88000080eb00b00f8800d7
:10342c000000eb00a00f88000080fa0000000600ee
:10343c000000fa00110a800080ff2f00008060005d
:10344c00100a880042e1a800110a8000f0f92f0050
:10345c00808060000002200000807000100a88004c
:10346c00110a800080ff2f00008060000000a00087
:10347c00100a8800210580000007200000807000e1
:10348c00200588008420a9009420a8000080fa0060
:10349c00000006000000fa00310a800080ff2f00b7
:1034ac0000806000300a880046e1a800310a8000e4
:1034bc00f0f92f0080806000000220000080700076
:1034cc00300a8800310a800080ff2f0000806000e5
:1034dc000000a000300a88003105800000072000a1
:1034ec00008070003005880084a0a90094a0a8007a
:1034fc000080fa00000006000000fa0005e1a900b7
:10350c0005a1a80004c1a90021088000f0fc2f002f
:10351c0000806000200888000441a9000421a90053
:10352c000000eb000008880000c429001008880087
:10353c0021058000f0ff280080806000000025003d
:10354c0000807000200588008460a9009460a800a9
:10355c0005e1a8000080fa00000006000000fa0057
:10356c0011e1a90011a1a80010c1a90081088000d7
:10357c00f0fc2f0000806000800888001021a9005a
:10358c000000eb00300888000080eb006008880029
:10359c003105800000002700008070003005880095
:1035ac0084e0a90094e0a80011e1a8000080fa00d2
:1035bc00000006000000fa0021058000f08f2f00ab
:1035cc0080806000003020000080700020058800a2
:1035dc008440a9009440a80031058000f08f2f0092
:1035ec008080600000102000008070003005880092
:1035fc0084c0a90094c0a80011068000f08f2f0091
:10360c008080600000202000008070001006880080
:10361c008bc0a9009bc0a8000080fa000000060027
:10362c000000fa002002a9000111800090ff2f0079
:10363c00008060000011880020a2a9002062a9006f
:10364c00a00220004011880023a2a90023e2a900b7
:10365c009580a90011118000f0f32f00008060000c
:10366c001011880021e2a8002342a8009c20a90088
:10367c0041058000f0ff28008080600000002600db
:10368c0000807000400588008560a9009560a80046
:10369c000080fa00000006000000fa00f00720008d
:1036ac00501c8800d0002000101c8800011c8000d9
:1036bc00f0fc2f0080806000000220000080700071
:1036cc00001c8800011c8000c0ff2f0000806000df
:1036dc00001c880000602000201c880000302000a6
:1036ec00401c88008480a9003105800080ff2f00d9
:1036fc00008060006000b300300588009480a80052
:10370c0081e3a8000080fa00000006000000fa0027
:10371c008de3a9008dc3a8008da3a8008d83a900fb
:10372c008d63a900611c8000f0fc2f0000806000fc
:10373c00601c8800611c8000c0ff2f0000806000ae
:10374c000000a000601c8800700c2000b01c8800d9
:10375c00c0002000701c880000702000801c8800b5
:10376c0040222000a01c880051058000f08f2f0003
:10377c0080806000001020000080700050058800e0
:10378c0085c0a90095c0a8000080fa0000000600c2
:10379c000000fa0001198000f0cf2f0000806000bb
:1037ac000019880001198000f0f12f008080600062
:1037bc000006200000807000001988002043a8003b
:1037cc002143a90021a3a8002063a8002343a9003a
:1037dc0011198000f0cf2f008080600000102000b5
:1037ec0000807000101988002223a9002203a90070
:1037fc0025e3a9002119800000f021000080700051
:10380c0020198800f0c3b30024e3b7002183a9007a
:10381c001119800030fc2f00008060000020a000f7
:10382c00101988009119800080ff2f000080600023
:10383c006000b3009019880031198000f09f2f00b0
:10384c0000806000301988002703a900311980001e
:10385c0090ff2f0000806000301988002603a9001b
:10386c0029e3a90041198000f00f2e0000806000b0
:10387c004019880028e3a9004119800000fe2f00a0
:10388c00008060000000a000401988000080eb0060
:10389c00601988002c03a9002c23a90085a0a9007d
:1038ac0095a0a90021e3a8000080fa000000060002
:1038bc000000fa006000b800004d8800114d88002f
:1038cc006000b800204d8800314d88006000b800c1
:1038dc00404d8800514d88006000b800604d880054
:1038ec00714d88000080fa00000006002e00fa00de
:1038fc00889fbe0000088000000f7800c096200052
:10390c001004be00a04d8000cf80de009af50700a9
:10391c000001be000800be0040f60700100798002a
:10392c0021079800c096200020049000b00490005d
:10393c00b04d8000cf80de008ff507000001be0087
:10394c000800be0035f607003007980041079800c4
:10395c001e019000ae0190003e009000ce00900041
:10396c00b0f4070050079800610798001e01900002
:10397c00ae0190003e009000ce009000a8f407002d
:10398c0070079800010f98000000eb00a04d880014
:10399c000000eb00b04d88007e0090008e08900077
:1039ac000002be0005f0a100b0488000c1488000b4
:1039bc0018c0b3000001be000400be0049f50700aa
:1039cc00e00f5000010034000044eb00e04f5400c5
:1039dc001a0032006000b8003017980041179800a8
:1039ec003e009000ce009000501798006117980090
:1039fc005e129000ee129000e03f8200f13f8200d8
:103a0c000001be000400be0004f60700700f980011
:103a1c00011798005e129000ee129000c03f8200d9
:103a2c00d13f82000001be000400be00fbf5070080
:103a3c001017980021179800860037005e00900040
:103a4c00ee0090000002be0005f0a100b04880001e
:103a5c00c148800018c0b3000001be000400be00c5
:103a6c0020f50700e00f5000010034000044eb008b
:103a7c00e04f54002800320010488000214880009c
:103a8c000001be007e0090008e089000c4f4070078
:103a9c003017980041179800444d8000554d800018
:103aac003e109000ce1090000001be000400be003d
:103abc005cf40700b2fd2000930c240033f50700e2
:103acc00404d8800514d8800404d8000514d800084
:103adc006ff60700c03f8a00d13f8a00404d80003e
:103aec00514d8000acf40700e03f8a00f13f8a00a2
:103afc006000b800700f9800011798006000b800c3
:103b0c0010179800211798006000b8005017980003
:103b1c00611798004f003700104880002148800042
:103b2c000001be007e0090008e0890009cf40700ff
:103b3c003017980041179800444d8000554d800077
:103b4c003e109000ce1090000001be000400be009c
:103b5c0034f40700b2fd2000930c24000bf5070091
:103b6c00404d8800514d8800404d8000514d8000e3
:103b7c0089f40700100f9800210f9800404d800029
:103b8c00514d800042f60700300f9800410f98000d
:103b9c0002002000030024005e009000ee00900064
:103bac007ff4070050179800611798007e01900071
:103bbc008e0990005e009000ee00900078f40700f3
:103bcc000002be00a04b8000b14b80000001be0083
:103bdc000400be0091f50700500f9800610f98008b
:103bec00c03f8200d13f82000001be003e08900021
:103bfc00ce0890000af407005e099000ee099000d0
:103c0c0086f50700700f980001179800e03f8200be
:103c1c00f13f82001e099000ae09900000f40700ed
:103c2c005e099000ee0990007cf5070010179800d3
:103c3c00211798003e089000ce089000c03f8a00e3
:103c4c00d13f8a001e089000ae089000e03f8a0029
:103c5c00f13f8a00644d8000754d80005e1090002d
:103c6c00ee1090000001be000400be00edf3070052
:103c7c00604d8800714d8800044d8000154d80000a
:103c8c007e0890008e1090000001be000400be0063
:103c9c00e4f30700004d8800114d8800244d80008e
:103cac00354d80001e109000ae1090000001be003b
:103cbc000400be00dbf30700204d8800314d880066
:103ccc00000880001e0050004f04be000080fa0067
:103cdc00000006000200fa00004f7800814d8000c1
:103cec001e407800010001000080fa000000060070
:103cfc000200fa00004f780030c2b3009e407800fa
:103d0c0080cf500004003a00a0e92100804d8800cb
:103d1c000000eb0002003700d0ff2f00420007002c
:103d2c000080fa00000006000200fa00004f780044
:103d3c0080ccb3009e40780080cf5000030036004a
:103d4c00c0ff2f003800070006003700c0eb210031
:103d5c00804d88009e4078000180fb0070408800f8
:103d6c000000eb000080fa00000006000600fa00dc
:103d7c0040479800904d80008000e8007040800023
:103d8c000000e800808f50001c003a00e0e72100a2
:103d9c00804d8800904d80008000780000812000cc
:103dac00010178008000eb00280007000080fb0078
:103dbc00000f78004e4090000080fb009e007800c1
:103dcc00808f500004003a000000eb00904d8800fa
:103ddc001000200012003700a0ff2f001200070077
:103dec008000ea00008070004f00de002047980041
:103dfc002e4090000080fb0009003700914d8000a0
:103e0c000081200000804000ce40900001487800e6
:103e1c00904d80000000e800904d88000000eb0001
:103e2c000080fa00000006000200fa00000f780083
:103e3c000000eb00904d8800e0e72100804d8800e9
:103e4c001e0078000080fa00000006000a00fa004c
:103e5c002007980031079800420798000040eb00bb
:103e6c00004f78003e0090001007980008003700c3
:103e7c001e009000ae0090000080400010407800c2
:103e8c001e4f40001e0090000000e8001007980034
:103e9c009e0090004e009000808f5000f4ff350083
:103eac001e4078000080fa00000006000200fa00b4
:103ebc00881f78000170240030c2b300804878005d
:103ecc007e10970000407800117024008048780024
:103edc000000eb00000f7800080037009e80e8001f
:103eec001e80e800660157000000410040709600fb
:103efc000270240000f178001e0fe8009e0078008c
:103f0c007e109700808f5000f4ff39007e109700d0
:103f1c000084e8007e1097000080e80080007800a4
:103f2c00007024000101780021002000c7ff070069
:103f3c000170240080707c007e1097000080e800e7
:103f4c00b01c88008de3a8008fe3a8004f04780014
:103f5c000080fa00000006000000fa002174200026
:103f6c0052042000730520008248780083487800b2
:103f7c0042c7a9007134800000fe2f000080600051
:103f8c005000b3007034880071348000f00f2e00a4
:103f9c008080600000a020000080700070348800d9
:103fac00e134800000fe2f00008060005000b30060
:103fbc00e0348800e1348000f00f2e008080600037
:103fcc000060200000807000e03488000135800023
:103fdc0000fe2f0000806000b000b30000358800a8
:103fec0001358000f00f2e008080600000a02000c2
:103ffc0000807000003588002135800000fe2f0005
:10400c00008060000030a000203588004136800020
:10401c00f00f2e00808060000030200000807000c7
:10402c0040368800217420005204200073052000c3
:10403c00824878008348780042c7a800c082a90053
:10404c00c842a900c862a900c8a2a800c8c2a8009a
:10405c00c942a800c962a800c482a900a5fc070037
:10406c00c7fc0700dcfc0700f1fc070009fd07009a
:10407c003afd0700c6fd070087fd070068fd070035
:10408c00a2fd07001cfd07004afd07000080fa0096
:10409c00000006000800fa00000f780011079800d5
:1040ac0022079800330798001e007800e10f50009b
:1040bc0009003a000000eb00000f78003e01900070
:1040cc00ae0090001e0090005df50700100020006f
:1040dc00000f7800040037003e019000ae00900005
:1040ec001e00900056f507000080fa000000060044
:1040fc000a00fa00881f78003007980041079800e2
:10410c003e0090001001be00120798002307980093
:10411c0010002000000f7800160037001e007800f9
:10412c004200dd00be009000008040001000be0088
:10413c0018c0b3001e019000ae0190006bf3070095
:10414c00e00f500001003c000044eb00e04f540035
:10415c00070032001e0078004200dd00be00900017
:10416c00008040001001be00120798002307980041
:10417c001e0fe8004e0090009e007800808f5000cb
:10418c00e6ff39001e009000ae00900059f30700c6
:10419c00000078004f0478000080fa000000060050
:020000040000fa
:1041ac00b80900000200000002000000000000003e
:1041bc00b009000004000000020000007e1e000098
:1041cc00000000000e080000cc0000000000000001
:1041dc0000470000c8000000000000008c0900002f
:1041ec0014000000020000000000000000000000ad
:1041fc0000000000000000000000000000000000b3
:10420c0000000000d4470000240000000000000063
:10421c00b4090000040000000200000000000000cf
:10422c0000000000da080000b200000000000000ee
:10423c00000800000c00000000000000c84700004f
:10424c000c0000000000000000460000000100000f
:10425c0000000000f8470000080000000200000009
:10426c000000000000000000803f0000a0090000da
:10427c0010000000000000000c080000020000000c
:08428c0000000000000000002a
:020000040000fa
:104294000000fa00f0fb0700f3f40700d8fb070066
:1042a40090f50700aaf507000ff6070082fd070046
:0842b4002bff0700ffff37009c
:00000001FF
